S01900004D6172696C755F636F646963655F342E332E73726563E7
S11300008DC00000ABC00000A9C0000068C30000A0
S11300108FC30000B6C30000DDC300009FC0000012
S11300209DC000009BC0000099C0000097C0000064
S113003095C0000093C0000091C000008FC0000074
S11300408DC000000C94741389C0000087C00000A8
S113005085C0000083C0000081C000007FC0000094
S11300607DC000007BC0000079C0000077C00000A4
S113007075C0000073C0000071C000006FC00000B4
S11300806DC000006BC0000069C0000067C00000C4
S113009065C0000063C0000061C000005FC00000D4
S11300A05DC000005BC0000059C0000057C00000E4
S11300B055C0000053C0000051C000004EC20000F3
S11300C04DC000004BC0000049C0000047C0000004
S11300D045C0000043C0000041C000003FC0000014
S11300E03DC000008302860289028C028F029202C4
S11300F095029802C712CE12E212F112E912D51239
S1130100DC12F812FF12061325132C1340134F139D
S1130110471333133A1356135D13641311241FBE8C
S1130120CFEFD1E2DEBFCDBF00E00CBF12E0A0E014
S1130130B2E0EEE9F6E400E00BBF02C007900D92D6
S1130140A839B107D9F724E0A8E9B2E001C01D92AB
S1130150A63EB207E1F767D30C944D2351CFEAE7EB
S1130160F0E0808187608083ACE7B0E08C918064AC
S11301708C938081806880838081806480830895EB
S1130180CF93DF9322E030E0ACE7B0E0CBE7D0E000
S1130190482F4770EAE7F0E09C91907F9C93988108
S11301A0977F9883883020F49C91982B9C9306C069
S11301B09C91942B9C9398819860988390819064EF
S11301C09083908196FDFDCF2150310929F78091CC
S11301D0780090917900DF91CF91089540E050E04C
S11301E06DE370E082E590E00E94552089E698E195
S11301F00197F1F700C0000041E050E067E070E0D3
S113020082E590E00E94552040919A0290E2499F35
S11302109001112480910302482F50E0440F551F90
S1130220440F551F440F551F422B532B809104023A
S1130230482B68E070E082E590E00E9455204091F0
S1130240050250E0440F551F440F551F440F551F1E
S113025080919B02482B6AE070E082E590E00E9466
S1130260552040919C0250E06BE070E082E590E004
S11302700E9455204091990280E2489F90011124E8
S113028080910202482F50E0440F551F440F551F20
S1130290440F551F422B532B80910102482B69E0D8
S11302A070E082E590E00E94552040E050E067E075
S11302B070E082E590E00E94552041E050E060E467
S11302C070E082E590E00E94552041E050E06BE34D
S11302D070E082E590E00E9455204091980250E041
S11302E06EE370E082E590E00E94552040910002A8
S11302F050E06DE370E082E590E00E94552089E6CD
S113030098E10197F1F700C000000895CF93DF93BF
S1130310EC0183E090E00E946C1F892BD1F781E00F
S113032090E00E946C1FC230D10569F0C330D10542
S113033091F02197C1F46AE170E082E590E00E94B7
S11303400120EC0112C06CE170E082E590E00E94B3
S11303500120EC010AC06EE170E082E590E00E94A9
S11303600120EC0102C0C0E0D9E180E090E00E94ED
S11303706C1FBE01DD0F880B990B0E94B02120E099
S113038030E040E85DE30E946422DF91CF9108955C
S1130390CF92DF92EF92FF928130910509F04BC02A
S11303A081E090E0B3DF2091A5023091A602409154
S11303B0A7025091A8020E94AC206B017C0120E0AE
S11303C030E0A9010E94112188238CF420E030E060
S11303D044EB53E4C701B6010E94AD206093A90227
S11303E07093AA028093AB029093AC023EC020E0CB
S11303F030E044EB53E4C701B6010E946022882335
S11304004CF4C092A902D092AA02E092AB02F092FC
S1130410AC022BC020E030E044EB53E4C701B6014A
S11304200E94AC206093A9027093AA028093AB024D
S11304309093AC021AC082309105B1F482E090E04E
S113044065DF2091A1023091A2024091A302509154
S1130450A4020E94AC206093A9027093AA02809324
S1130460AB029093AC0201C051DF6091A90270917C
S1130470AA028091AB029091AC02FF90EF90DF90C2
S1130480CF9008958DE08093210181E190E09093D5
S113049029018093280182E0809373001092E10285
S11304A01092E0021092D9021092D8021092D70250
S11304B01092D6021092DB028DE893E09093DF0253
S11304C08093DE028AE197E09093E3028093E20254
S11304D081EC91E19093E5028093E40289E69FE048
S11304E09093DD028093DC0286E00C941913089546
S11304F09C0188309105F0F4FC018827EE58FF4FE9
S11305008F4F0C940A2381E088B914C083E088B922
S113051011C082E088B90EC086E088B90BC084E0BF
S113052088B908C08CE088B905C088E088B902C0E1
S113053089E088B96130710519F4C901019602C0D6
S1130540C9010197883091052CF499232CF487E094
S113055090E0089580E090E008951F920F920FB606
S11305600F9211240BB60F922F933F934F935F93E7
S11305706F937F938F939F93AF93BF93EF93FF9367
S11305806091DB02611154C02091D6023091D702F0
S11305906091E2027091E302C9010E94C722892B93
S11305A021F481E00E9419130CC06091DE02709165
S11305B0DF02C9010E94C722892B19F483E00E943B
S11305C019138091D8029091D9028C339F40ACF4D6
S11305D06091DB0270E08091E0029091E10288DF9B
S11305E09093E1028093E0028091D8029091D90225
S11305F001969093D9028093D8022091D60230912B
S1130600D7028091E4029091E5028217930730F4B7
S113061081E08093DB0286E00E9419138091D60268
S11306209091D70201969093D7028093D60221C06D
S11306308091D8029091D9028C3D9E41A4F470E03F
S11306408091E0029091E10253DF9093E102809364
S1130650E0028091D8029091D90201969093D90238
S11306608093D80206C018B88FEF8093DB021092F3
S11306702101FF91EF91BF91AF919F918F917F9154
S11306806F915F914F913F912F910F900BBE0F90FF
S11306900FBE0F901F90189587B18F6387B9089587
S11306A00F931F93CF93DF938C0186E00E9419135D
S11306B081E08093D202101611063CF4C0E0D0E031
S11306C0E1DE21960C171D07D9F71092D20286E0BD
S11306D00E941913DF91CF911F910F9108951F92DA
S11306E00F920FB60F9211240BB60F922F933F93D4
S11306F04F935F936F937F938F939F93AF93BF9326
S1130700EF93FF9382E00E94EA18FF91EF91BF916B
S1130710AF919F918F917F916F915F914F913F9195
S11307202F910F900BBE0F900FBE0F901F90189536
S11307301F920F920FB60F9211240BB60F922F93A4
S11307403F934F935F936F937F938F939F93AF9355
S1130750BF93EF93FF9383E00E94EA18FF91EF9118
S1130760BF91AF919F918F917F916F915F914F91C5
S11307703F912F910F900BBE0F900FBE0F901F90C3
S113078018951F920F920FB60F9211240BB60F9269
S11307902F933F934F935F936F937F938F939F9385
S11307A0AF93BF93EF93FF9381E00E94EA18FF9108
S11307B0EF91BF91AF919F918F917F916F915F91D5
S11307C04F913F912F910F900BBE0F900FBE0F9042
S11307D01F9018951F920F920FB60F9211240BB60B
S11307E00F922F933F934F935F936F937F938F93C6
S11307F09F93AF93BF93EF93FF9380E00E94EA1817
S1130800FF91EF91BF91AF919F918F917F916F91E4
S11308105F914F913F912F910F900BBE0F900FBEA0
S11308200F901F901895CF93DF93CDB7DEB76397E2
S11308300FB6F894DEBF0FBECDBF86E00E94BB1298
S113084086E00E9419130E944A1E86E092E00E94EC
S11308506D1E0E947B1FC2DC0E94B91D1DDF0E9419
S1130860C71A0E94D5197BDC81E08093DA024AE939
S113087059E969E97FE340933C0350933D03609356
S11308803E0370933F0324EB30E030931B0320932B
S11308901A03809319031092F8021092F7020E942F
S11308A0D9192FEF89E698E1215080409040E1F773
S11308B000C000000E94F31B82E090E027DD6093FB
S11308C0A1027093A2028093A3029093A40281E0F8
S11308D090E01CDD6093A5027093A6028093A702AA
S11308E09093A80210E000E0212C1E861F86188A2F
S11308F0198A332433943D8680E090E09B8B8A8B65
S113090083E00E94BB120E94F41C813071F42AE936
S113091039E949E95FEB60E070E080EF91E40E941F
S1130920C11B132D232C1B8A1A8A82E00E94341CBB
S11309306B017C0183E00E94341C2B013C0184E0A8
S11309400E94341C4B015C0185E00E94341C6983C5
S11309507A838B839C8380E00E94BB1220E030E08A
S113096040EA51E4C701B6010E946022882304F1E1
S113097020E030E040EA51E4C301B2010E941121B9
S11309808823B4F460913C0370913D0380913E034D
S113099090913F030E948A1B83E00E94341C20E054
S11309A030E040EA51E40E9411218823ACF3FAC2FA
S11309B020E030E040EA51E4C501B4010E94602225
S11309C0882314F120E030E040EA51E469817A811F
S11309D08B819C810E9411218823B4F460913C0393
S11309E070913D0380913E0390913F030E948A1BC6
S11309F085E00E94341C20E030E040EA51E40E948B
S1130A0011218823ACF3CEC220E030E040EA51E467
S1130A10C701B6010E94112188231CF520E030E0B3
S1130A2040EA51E4C301B2010E9460228823CCF061
S1130A3080913C0390913D03A0913E03B0913F030C
S1130A40BC01CD0190580E948A1B82E00E94341C94
S1130A5020E030E040EA51E40E9411218823ACF305
S1130A60A1C220E030E040EA51E4C501B4010E9493
S1130A7011218823C4F520E030E040EA51E4698183
S1130A807A818B819C810E946022882364F1809109
S1130A903C0390913D03A0913E03B0913F03BC0100
S1130AA0CD0190580E948A1B84E00E94341C20E0EF
S1130AB030E040EA51E40E9411218823ACF372C271
S1130AC083D660E070E080E89FE30E948A1B0E9466
S1130AD0481B0E94331E20E030E040EC50E40E94AA
S1130AE0112188236CF30E94A91B83E00E94BB128E
S1130AF082E00E94341C69837A838B839C8383E025
S1130B000E94341C69877A878B879C8784E00E94C3
S1130B10341C6B017C0185E00E94341C6D837E8350
S1130B208F839887832D0E94341C4B015C0180E0E5
S1130B300E94341C2B013C01111149C08A899B89F4
S1130B4005970CF044C020E030E040EA51E46981AC
S1130B507A818B819C810E946022181664F020E0C7
S1130B6030E040EA51E469857A858B859C850E9452
S1130B706022181664F5832D0E94BB128DE092E06A
S1130B800E946D1E60E070E084EB92E42AD28A89B0
S1130B909B8901969B8B8A8B2D813E814F81588541
S1130BA0C701B6010E94AD2020E030E040E05FE3E1
S1130BB00E94642220E030E040EA51E40E941121C6
S1130BC018160CF0032D86E00E94BB12A0C020E092
S1130BD030E040E251E4C501B4010E94112118162D
S1130BE084F420E030E040E251E4C301B2010E9409
S1130BF01121181634F491E0291619F0113009F076
S1130C0086C082E00E94BB1220E030E040E951E45B
S1130C10C701B6010E94602218167CF520E030E07E
S1130C2040E951E46D817E818F8198850E94602224
S1130C3018161CF586E192E00E946D1E60E070E0DB
S1130C4084EB92ECCED129853A854B855C8569810C
S1130C507A818B819C810E94AD2020E030E040E0CD
S1130C605FE30E94642220E030E040EA51E40E9405
S1130C70112118160CF441C098C1A701960169818D
S1130C807A818B819C810E94602288238CF080E28F
S1130C9092E00E946D1E60E070E084EB92E4A1D1CA
S1130CA093D560E070E084EB92E49BD133D410C020
S1130CB088E292E00E946D1E60E070E084EB92ECAA
S1130CC090D182D560E070E084EB92EC8AD122D49A
S1130CD0A3019201C501B4010E94AD2020E030E0DF
S1130CE040E05FE30E94642220E030E040EA51E407
S1130CF00E94112118160CF058C186E00E94BB1204
S1130D00013049F010E0212C1B8A1A8A38C10130C5
S1130D1009F023C104C010E0212C1B8A1A8A85E043
S1130D200E94BB12F7D36DEC7CEC8CE49FEB0E9429
S1130D308A1B0E94FC1B4B015C01D12C00E00F2E8E
S1130D40F8E8EF2EF02D0F2EF3E1FF2EF02D8A8917
S1130D509B899A838983DD82C4C00E947B1D88237A
S1130D6099F0011111C00E94FC1B4B015C010E940F
S1130D709A1D811129C10F2EF8EEEF2EF02D0F2EA2
S1130D80F3E0FF2EF02D1BC00E949A1D8823A1F0D2
S1130D909D81911111C00E94FC1B4B015C0101302B
S1130DA0B9F02D852D830F2EF8EEEF2EF02D0F2E9A
S1130DB0F3E0FF2EF02D95C0013009F092C08D8133
S1130DC0813009F08DC089819A819B8B8A8B04C004
S1130DD089819A819B8B8A8B81E090E097DA6B0101
S1130DE07C0120E030E84DE953E40E9460221816AB
S1130DF00CF44EC020E030E044E352E4C701B601F5
S1130E000E94112118160CF048C020E030E044E3A1
S1130E1052E4C701B6010E946022181654F420E07F
S1130E2030E047E053E4C701B6010E9411211816CF
S1130E30CCF520E030E047E053E4C701B6010E945E
S1130E406022181654F420E030E041E653E4C70170
S1130E50B6010E941121181664F520E030E041E645
S1130E6053E4C701B6010E946022181644F520E03D
S1130E7030E84DE953E4C701B6010E941121181668
S1130E80F4F01E861F8697E8988B23E4298B17C0FD
S1130E901E861F86188A198A12C01E861F86188A03
S1130EA0198A0DC01E861F8684EB888B92E4998B69
S1130EB006C01E861F8624E3288B83E4898B2E8537
S1130EC03F8548895989C701B6010E94AC206093C7
S1130ED0A5027093A6028093A7029093A80216C05D
S1130EE00D850E94FC1BDC01CB0188199909AA0914
S1130EF0BB092701612C712C84159505A605B7053E
S1130F0008F42BCF89819A819B8B8A8B20E030E077
S1130F1040EC5FEB60E070E080E09FE30E94C11B67
S1130F200E94D91960E070E080E89FE30E948A1B68
S1130F3007C04AD460E070E080E89FE30E948A1B07
S1130F400E94481B20E030E040E450E40E9411215C
S1130F5088237CF30E94A91B00E08A899B8905975A
S1130F6074F060913C0370913D0380913E03909135
S1130F703F030E947D21CB01C6D51B8A1A8ACAD29F
S1130F8086E00E94BB1220D460913C0370913D0323
S1130F9080913E0390913F030E947D21CB01B3D504
S1130FA013D4AECC0E94D91992CD86E00E94BB1214
S1130FB010E0212C1B8A1A8AB2CE89819A819B8BDC
S1130FC08A8B0E94FC1B08CF9D819923B1F30D8568
S1130FD00F2EF8EEEF2EF02D0F2EF3E0FF2EF02D56
S1130FE0EBCE4F925F926F927F928F929F92AF92CD
S1130FF0BF92CF92DF92EF92FF92CF93DF9300D014
S11310001F92CDB7DEB74B015C0160E070E0CB010D
S11310100E948A1B81E090E0BBD96B017C01609344
S1131020890370938A0380938B0390938C031092AB
S113103088031092870360936F0370937003809307
S1131040710390937203C501B4010E947D21CB0109
S11310506AE570E00E94DB22892B09F0F5C0A70144
S11310609601C501B4010E94AC202B013C016093A0
S11310707703709378038093790390937A0320E045
S113108030E044E352E4C701B6010E94602218161E
S1131090DCF420E030E047E053E4C701B6010E94ED
S11310A0112118168CF020E030E044EB52E4C30127
S11310B0B2010E94AD20609377037093780380930C
S11310C0790390937A0349C020E030E047E053E489
S11310D0C701B6010E9460221816DCF420E030E05B
S11310E041E653E4C701B6010E94112118168CF0A1
S11310F020E030E044E353E4C301B2010E94AD2098
S113110060937703709378038093790390937A03C1
S113111024C020E030E041E653E4C701B6010E9458
S113112060221816D4F420E030E84DE953E4C701F6
S1131130B6010E941121181684F020E030E047E83F
S113114053E4C301B2010E94AD206093770370930E
S113115078038093790390937A0320E030E0A90127
S1131160C501B4010E94602288231CF1C09077035A
S1131170D0907803E0907903F0907A0320E030E097
S1131180A901C701B6010E94112188230CF054C0A3
S113119020E030E044EB53E4C701B6010E94AD20E7
S11311A060937703709378038093790390937A0321
S11311B043C0C0907703D0907803E0907903F09017
S11311C07A0320E030E044EB53ECC701B6010E94FF
S11311D01121882384F420E030E044EB53E4C70178
S11311E0B6010E94AD2060937703709378038093D7
S11311F0790390937A03C0907703D0907803E090BA
S11312007903F0907A0320E030E0A901C701B60128
S11312100E946022181684F420E030E044EB53E48A
S1131220C701B6010E94AC206093770370937803E2
S11312308093790390937A03809077039090780356
S1131240A0907903B0907A0320E030E0A901C501B1
S1131250B4010E946022181624F481E08093DA031A
S113126003C08FEF8093DA036091DA03062E000C3B
S1131270770B880B990B0E94B02123E333E343EBF4
S11312805FE30E9464229B01AC0190580E94AE1B54
S11312900F2EF3E34F2E542CF3EB6F2EFFE37F2E30
S11312A0F02D81E090E074D86B017C016093EB0336
S11312B07093EC038093ED039093EE0320916F03FE
S11312C03091700340917103509172030E94AC20DD
S11312D069837A838B839C8320E030E044E353E486
S11312E00E946022181654F4809187039091880319
S11312F00197909388038093870315C020E030E022
S113130044E353EC69817A818B819C810E94112191
S113131088234CF4809187039091880301969093DD
S1131320880380938703A7019601C501B4010E9435
S1131330AC206B017C01809187039091880328E69F
S113134031E0829FB001839F700D929F700D112434
S1131350072E000C880B990B0E94B0219B01AC0155
S1131360C701B6010E94AC202091890330918A0301
S113137040918B0350918C030E94AD206B017C0142
S113138020E030E0A901C501B4010E9411218823A5
S11313904CF0C092D203D092D303E092D403F092E3
S11313A0D5030CC0F7FAF094F7F8F094C092D20386
S11313B0D092D303E092D403F092D503C090D20329
S11313C0D090D303E090D403F090D50320E030E034
S11313D040EF51E4C701B6010E94112118163CF1F7
S11313E020E030E040EA50ECC701B6010E946022E0
S11313F08823ECF02CEC3CEC4CE85FE3C701B6012D
S11314000E94642220E030E040EF51E40E94152164
S11314102AE939E949E95EE30E94AD206093B40307
S11314207093B5038093B6039093B70308C04092BA
S1131430B4035092B5036092B6037092B7036091FF
S1131440DA03062E000C770B880B990B0E94B0214F
S11314502091B4033091B5034091B6035091B70382
S11314600E9464229B01AC0190580E94AE1B8091A3
S1131470EB039091EC03A091ED03B091EE03809304
S11314806F0390937003A0937103B093720320E0F1
S113149030E0A9016091D2037091D3038091D40309
S11314A09091D5030E94602218160CF4FACE0E9483
S11314B0A91BC501B4010E94331E20E030E044EBB7
S11314C052E40E941121882351F020E030E044E3EB
S11314D053E4C501B4010E941121811108C0C50162
S11314E0B4010E947D2170931B0360931A030F9033
S11314F00F900F900F90DF91CF91FF90EF90DF90BE
S1131500CF90BF90AF909F908F907F906F905F909F
S11315104F9008958F929F92AF92BF92CF92DF9295
S1131520EF92FF92CF93DF9383E00E94BB12CFEF41
S1131530DFEF60E070E0CB010E948A1BC130D1056F
S1131540B9F482E00E94341C6093C0037093C10319
S11315508093C2039093C30383E00E94341C60937E
S11315608D0370938E0380938F039093900316C022
S113157084E00E94341C6093C0037093C103809381
S1131580C2039093C30385E00E94341C60938D03CF
S113159070938E0380938F0390939003BE010D2E5E
S11315A0000C880B990B0E94B0216B017C012091E7
S11315B08D0330918E0340918F035091900360917D
S11315C0C0037091C1038091C2039091C3030E9430
S11315D0AC20A70196010E94642260939E0370933D
S11315E09F038093A0039093A10392C0C130D105BF
S11315F0E9F482E00E94341C6093C0037093C10339
S11316008093C2039093C30383E00E94341C2AE9AD
S113161039E949E95EE30E94AC2060938D0370933D
S11316208E0380938F03909390031CC084E00E94E8
S1131630341C6093C0037093C1038093C2039093DE
S1131640C30385E00E94341C2AE939E949E95EE3D1
S11316500E94AC2060938D0370938E0380938F035C
S11316609093900320918D0330918E0340918F03CA
S1131670509190036091C0037091C1038091C203A3
S11316809091C3030E94AC20A70196010E9464229A
S113169060939E0370939F038093A0039093A10390
S11316A020E030E040EC5FE30E9464222DEC3CEC4F
S11316B04CE45EE30E94AD204B015C0120E030E08D
S11316C040E250E40E94602218164CF08092950388
S11316D090929603A0929703B09298030CC080E076
S11316E090E0A0E2B0E48093950390939603A093D6
S11316F09703B093980320919503309196034091FA
S1131700970350919803CA01B90190580E94AE1BE7
S113171060919E0370919F038091A0039091A10317
S11317200E94331E2DEC3CEC4CE45EE30E9411213C
S113173088239CF160919E0370919F038091A00384
S11317409091A1030E94331E20E030E040E751E471
S11317500E94602218160CF120918D0330918E03A3
S113176040918F03509190036091C0037091C10325
S11317708091C2039091C3030E94AD2020E030E029
S113178040E05FE30E94642220E030E040EA51E45C
S11317900E94602218160CF029CF60E070E0CB01A3
S11317A00E948A1B86E0E7D62296C330D10509F051
S11317B0C0CEDF91CF91FF90EF90DF90CF90BF909C
S11317C0AF909F908F900895CF92DF92EF92FF9207
S11317D0CF9380911903813009F0F3C00E94B91CA2
S11317E06093AA037093AB038093AC039093AD030F
S11317F085E00E94341C6B017C0184E00E94341C4F
S11318009B01AC01C701B6010E94AD2020E030E08D
S113181040E05FE30E9464226B017C016093A603B5
S11318207093A7038093A8039093A90320E030E06A
S11318304CE052E46091AA037091AB038091AC0335
S11318409091AD030E94602288230CF43FC020E0F5
S113185030E040EA51E4C701B6010E941121882317
S1131860BCF51092190381E090E00E94500360E0FF
S113187070E084EB92E4B5DB20E030E040E85FEB1D
S113188060E070E080E490E40E94C11B06C08FE138
S11318909EE40197F1F700C000008091D2028130EC
S11318A0B1F38091DB02882391F320E030E040E83B
S11318B05FE360E070E080E090E40E94C11B60E0C0
S11318C070E084EB92EC8DDBC1E003C0C0E001C0AA
S11318D0C0E00E947E1C6093E7037093E80380934A
S11318E0E9039093EA0383E00E94341C6B017C01BA
S11318F082E00E94341C9B01AC01C701B6010E9426
S1131900AD2020E030E040E05FE30E9464226B0100
S11319107C0160937B0370937C0380937D0390939D
S11319207E0320E030E04CE052E46091E7037091E4
S1131930E8038091E9039091EA030E9460228823DE
S11319400CF440C020E030E040EA51E4C701B601A5
S11319500E9411218823B4F51092190381E090E0CC
S11319600E94500360E070E084EB92EC3ADB20E0EC
S113197030E040E85FEB60E070E080E490E40E94D7
S1131980C11B06C08FE19EE40197F1F700C000007F
S11319908091D2028130B1F38091DB02882391F3EC
S11319A020E030E040E85FE360E070E080E090E455
S11319B00E94C11B60E070E084EB92E412DBC1E0A2
S11319C001C0C0E08C2FCF91FF90EF90DF90CF90BB
S11319D00895CF92DF92EF92FF920E94B91C609318
S11319E0AA037093AB038093AC039093AD030E945E
S11319F07E1C6B017C016093E7037093E803809382
S1131A00E9039093EA0320E030E04CE052E4609173
S1131A10AA037091AB038091AC039091AD030E9433
S1131A20602288238CF18091B20381112DC081E062
S1131A308093B20381E090E00E94500320E030E004
S1131A4040E05FE360E070E080E291E40E94C11B4B
S1131A5082E090E00E94C8012FE632E143E05BE3BC
S1131A600E9464220E948A1B06C08FE19EE40197B3
S1131A70F1F700C000008091D2028130B1F380916F
S1131A80DB02882391F33AC020E030E04CE052E4DA
S1131A90C701B6010E946022882384F18091B303B8
S1131AA081112CC081E08093B30381E090E00E9417
S1131AB0500320E030E040E05FE360E070E080E26B
S1131AC091E40E94C11B82E090E00E94C8012FE6CD
S1131AD032E143E05BE30E9464220E948A1B06C059
S1131AE08FE19EE40197F1F700C000008091D202DB
S1131AF08130B1F38091DB02882391F3FF90EF9062
S1131B00DF90CF9008954F925F926F927F928F9261
S1131B109F92AF92BF92CF92DF92EF92FF92CF93B8
S1131B20DF9300D000D0CDB7DEB79E838D8381E0F4
S1131B300E94341C6093DB037093DC038093DD0309
S1131B409093DE0380E00E94341CC62ED72EE82E2C
S1131B50F92E862F9D2DAE2DBF2D8093DF039093FC
S1131B60E003A093E103B093E2038090DB03909041
S1131B70DC03A090DD03B090DE03282D392D4A2D1F
S1131B805B2D6C2D7D2D8E2D9F2D0E941121882380
S1131B9024F0C82CD92CEA2CFB2C8C2D9D2DAE2D99
S1131BA0BF2D8093C9039093CA03A093CB03B09332
S1131BB0CC0383E392E00E946D1E10927603109290
S1131BC075030E94D91981E090E00E94C8016B015D
S1131BD07C0120E030E84DE953E40E9460221816AD
S1131BE054F020E030E044E352E4C701B6010E941F
S1131BF0112118164CF01092D6031092D7031092AC
S1131C00D8031092D90362C020E030E044E352E4E8
S1131C10C701B6010E9460221816BCF420E030E02F
S1131C2047E053E4C701B6010E94112118166CF075
S1131C3080E090E0A4EBB2E48093D6039093D703C2
S1131C40A093D803B093D90341C020E030E047E02B
S1131C5053E4C701B6010E9460221816BCF420E0C8
S1131C6030E041E653E4C701B6010E941121181681
S1131C706CF080E090E0A4E3B3E48093D603909307
S1131C80D703A093D803B093D90320C020E030E059
S1131C9041E653E4C701B6010E9460221816B4F469
S1131CA020E030E84DE953E4C701B6010E94112158
S1131CB0181664F080E090E0A7E8B3E48093D603BC
S1131CC09093D703A093D803B093D9038091D603FC
S1131CD09091D703A091D803B091D9038093910335
S1131CE090939203A0939303B0939403109266038A
S1131CF01092670310926803109269031092A20372
S1131D001092A3031092A4031092A5030E94FC1B3B
S1131D104B015C011092AE031092AF031092B0031A
S1131D201092B103C090C903D090CA03E090CB03D2
S1131D30F090CC0320E030E040EA50E4C701B60163
S1131D400E94112118160CF471C28DC281E00E9408
S1131D50341C6093DB037093DC038093DD03909366
S1131D60DE0380E00E94341CC62ED72EE82EF92E06
S1131D70862F9D2DAE2DBF2D8093DF039093E0031E
S1131D80A093E103B093E2036090DB037090DC0363
S1131D905090DD034090DE03262D372D452D542D24
S1131DA06C2D7D2D8E2D9F2D0E941121882324F0D2
S1131DB0C62CD72CE52CF42C8C2D9D2DAE2DBF2DAF
S1131DC08093C9039093CA03A093CB03B093CC032D
S1131DD00E94CC1D90E0909376038093750383302A
S1131DE0910581F460E070E080E89FEB0E948A1B1B
S1131DF00E94CC1D90E0909376038093750383300A
S1131E00910581F3892B09F480C0E3DD82E00E940F
S1131E10341C6093B8037093B9038093BA0390930E
S1131E20BB0384E00E94341C6B017C016093830338
S1131E3070938403809385039093860320E030E0BD
S1131E4040E751E40E94112188237CF54090B803B7
S1131E505090B9036090BA037090BB0320E030E067
S1131E6040E751E4C301B2010E9411218823ECF43C
S1131E70A7019601C301B2010E94AC202DEC3CECF9
S1131E804CEC5DE30E94642260936B0370936C03DB
S1131E9080936D0390936E0320E030E040E05FE3B5
S1131EA00E946022181654F011C010926B03109215
S1131EB06C0310926D0310926E0308C010926B03B2
S1131EC010926C0310926D0310926E03C0906B031A
S1131ED0D0906C03E0906D03F0906E032DEC3CEC1D
S1131EE04CE45FE3C701B6010E94AD202B013C0125
S1131EF0A70196016DEC7CEC8CE49FE30E94AC207E
S1131F00A30192010E94AE1B7DC181E090E00E947A
S1131F10C8016B017C012091D6033091D703409115
S1131F20D8035091D9030E94AC202B013C0120E03E
S1131F3030E044E353E40E9460221816BCF420E02D
S1131F4030E040E85FE36091A2037091A3038091C5
S1131F50A4039091A5030E94AC206093A203709304
S1131F60A3038093A4039093A50320C020E030E052
S1131F7044E353ECC301B2010E9411218823B4F459
S1131F8020E030E040E85FE36091A2037091A30396
S1131F908091A4039091A5030E94AD206093A203B5
S1131FA07093A3038093A4039093A503C092D603D4
S1131FB0D092D703E092D803F092D90320E030E026
S1131FC044EB53E46091A2037091A3038091A403B2
S1131FD09091A5030E946422A70196010E94AD205E
S1131FE06093620370936303809364039093650327
S1131FF02091910330919203409193035091940363
S11320000E94AC206B017C016093BC037093BD0300
S11320108093BE039093BF032DEC3CEC4CE45DE352
S11320200E9464226093E3037093E4038093E503C6
S11320309093E6032FE632E143E05AE3C701B60189
S11320400E9464229B01AC01609166037091670356
S113205080916803909169030E94AD2060936603A8
S11320607093670380936803909369030E94FC1B39
S11320706B017C014090BC035090BD036090BE0393
S11320807090BF0320919A0330919B0340919C036D
S113209050919D03C301B2010E94AC2069837A83ED
S11320A08B839C83C701B601681979098A099B0946
S11320B00E94AE2120E030E04AE754E40E9415215A
S11320C09B01AC0169817A818B819C810E941521DD
S11320D02FE632E143E05BE30E9464224B015C01A2
S11320E060937F03709380038093810390938203B2
S11320F040929A0350929B0360929C0370929D03BA
S11321004090660350906703609068037090690381
S113211020E030E040E05FE3C301B2010E946022AE
S113212018166CF480E090E0A0E0BFE380936603AF
S113213090936703A0936803B093690316C020E0EB
S113214030E040E05FEBC301B2010E94112188231B
S113215064F480E090E0A0E0BFEB8093660390938A
S11321606703A0936803B0936903209166033091D9
S1132170670340916803509169036091E303709190
S1132180E4038091E5039091E6030E94AD20A5014C
S113219094010E94AD204B015C016093C5037093D0
S11321A0C6038093C7039093C8036093AE037093F0
S11321B0AF038093B0039093B1039B01AC0160E043
S11321C070E080E89FE30E94AC202B013C0120E0FA
S11321D030E040E85FE3C501B4010E94AD20A301F3
S11321E092010E94AE1B0E94F41C813049F0ECDA8B
S11321F08D819E8157D0811136C04601570102C09E
S1132200460157010E94161FC090C903D090CA030B
S1132210E090CB03F090CC0320E030E040EA50E4BF
S1132220C701B6010E9411211816ECF420E030E039
S113223048EC51E4C701B6010E94602218160CF064
S113224085CD0E94481B20E030E040EF51E40E941D
S1132250602288230CF47ACD8091750390917603E3
S1132260892B09F073CD1092B3031092B2030E942C
S1132270A91B81E0809319034DD926960FB6F894D3
S1132280DEBF0FBECDBFDF91CF91FF90EF90DF9007
S1132290CF90BF90AF909F908F907F906F905F9002
S11322A04F9008950F931F93CF932091F70230918D
S11322B0F8022530310508F0C8C08C0181E00E9485
S11322C0341C20E030E040ED50E40E94602288237A
S11322D00CF4CBC080E00E94341C20E030E040EDE0
S11322E050E40E94602288230CF4BFC00E94611D48
S11322F08093D1030E942D1D809399030E94471D52
S11323008093C4039091D103913031F0909199035B
S1132310913011F5813011F588E02DD12AE939E9A0
S113232049E95FEB60E070E080E890E40E94C11B43
S113233060911A0370911B03719561957109072EC1
S1132340000C880B990B0E94B0210E94F107E2D87F
S1132350C801D9DBC1E003C0C0E001C0C0E00E94F5
S11323602D1D80939903813079F584E004D120E018
S113237030E040E85FEB60E070E080EA90E40E94C7
S1132380C11B60E070E08CE092EC0E94F10720E059
S113239030E040E85FE360E070E080E891E40E94B0
S11323A0C11B60E070E0CB010E94F10720E030E047
S11323B040E85FEB60E070E080E491E40E94C11BC0
S11323C0A9D8C801A0DBC1E00E94471D8093C403C3
S11323D08130B9F587E0CFD06DEC7CEC8CE89FEBD5
S11323E00E948A1B20E030E040E85FEB60E070E090
S11323F080EA90E40E94C11B60E070E08CE092E40B
S11324000E94F10720E030E040E85FE360E070E024
S113241080E891E40E94C11B6DEC7CEC8CEC9DEB9C
S11324200E94F10720E030E040E85FEB60E070E0FC
S113243080E491E40E94C11B6DD8C80164DBF6D02E
S113244009C0F4D0C13031F011C01092F8021092DA
S1132450F7020BC08091F7029091F80201969093D5
S1132460F8028093F702C1E001C0C0E08C2FCF9145
S11324701F910F910895FC01A098989AF8949B01DC
S113248021503109672B09F424C00190008007D042
S1132490029005D001900190019001D016C007D0A0
S11324A006D005D004D003D002D001D000C0A09A39
S11324B0001C0000000008F0A098000000000000CC
S11324C00000000008F4A09808952150310908F094
S11324D0DCCF78948FE391E00197F1F700C000001E
S11324E00895FC01A2989A9AF8949B01215031090D
S11324F0672B09F424C00190008007D0029005D016
S113250001900190019001D016C007D006D005D0EB
S113251004D003D002D001D000C0A29A001C000055
S1132520000008F0A2980000000000000000000075
S113253008F4A29808952150310908F0DCCF78946A
S11325408FE391E00197F1F700C000000895209116
S1132550DA02213021F461E070E08DCF0895FC01AE
S113256010821182128261E070E085CF089561E0EB
S113257070E0B7CF089590E08A30910508F04DC01F
S1132580FC018827E658FF4F8F4F0C940A23E3ED94
S1132590F2E08FEF80831182128244C0E3EDF2E017
S11325A0108211828FEF82833DC0E3EDF2E010824E
S11325B08FEF8183128236C0E3EDF2E01082118244
S11325C0128230C0E3EDF2E08FEF808381831282C8
S11325D029C0E3EDF2E08FEF80838FE781831282DD
S11325E021C0E3EDF2E08FEF8083818382831AC000
S11325F0E3EDF2E08FEF80831182828313C0E3ED79
S1132600F2E084E68083118282830CC0E3EDF2E081
S113261086E980838183828305C0E3EDF2E0108242
S11326201182128283ED92E092CF089586E0A3CFC7
S1132630089590E08A30910508F04DC0FC01882788
S1132640EC57FF4F8F4F0C940A23E3EDF2E08FEF2A
S113265080831182128244C0E3EDF2E01082118281
S11326608FEF82833DC0E3EDF2E010828FEF818330
S1132670128236C0E3EDF2E010821182128230C081
S1132680E3EDF2E08FEF80838183128229C0E3EDD2
S1132690F2E08FEF80838FE78183128221C0E3ED24
S11326A0F2E08FEF8083818382831AC0E3EDF2E04E
S11326B08FEF80831182828313C0E3EDF2E081E91E
S11326C08083118282830CC0E3EDF2E086E980838B
S11326D08183828305C0E3EDF2E0108211821282CD
S11326E083ED92E044CF08951F920F920FB60F929C
S11326F011240BB60F924F925F926F927F928F923A
S11327009F92AF92BF92CF92DF92EF92FF920F937C
S11327101F932F933F934F935F936F937F938F9365
S11327209F93AF93BF93CF93DF93EF93FF93109255
S11327309604809196048430E8F4E0919604F0E0E5
S1132740EE0FFF1FEE0FFF1FE75AFB4F80819181B1
S1132750A281B3810196A11DB11D80839183A283BF
S1132760B383809196048F5F80939604809196043E
S1132770843018F38091EF038F5F8093EF0380918F
S1132780EF03843010F01092EF03E091EF03F0E0D8
S1132790EE0FFF1FEC53FB4F8081918101969183D3
S11327A08083C0902004D0902104E0902204F09013
S11327B0230460917E0470917F0480918004909141
S11327C081040E94AE21A70196010E94AD200E94BF
S11327D0822160937E0470937F048093800490939D
S11327E08104E091EF03F0E0E556FB4F8081811115
S11327F0FEC0C091EF03D0E08090920490909304C7
S1132800A0909404B0909504E091EF03F0E0EE0FF3
S1132810FF1FEE0FFF1FE75CFB4FC080D180E280FB
S1132820F380E091EF03F0E0EE0FFF1FEE0FFF1FC8
S1132830ED55FB4F4080518062807380E091EF033F
S1132840F0E0EE0FFF1FEE0FFF1FE75BFB4F208151
S1132850318142815381A091BB04B091BC04E091C9
S1132860EF03F0E0E956FB4F1081E091EF03F0E055
S1132870EC5DFB4F00810E941223DC01CB01841923
S11328809509A609B709BC01CD016C0D7D1D8E1DEE
S11328909F1D0E94AE219B01AC01C501B4010E94A1
S11328A015216B017C01612F110F770B880B990B9C
S11328B00E94B0219B01AC01C701B6010E946422B1
S11328C06B017C01602F000F770B880B990B0E9422
S11328D0B0219B01AC01C701B6010E946422CC0F58
S11328E0DD1FCC0FDD1FC05CDC4F688379838A83D6
S11328F09B83E091EF03F0E0EE0FFF1FEE0FFF1F4D
S1132900E05CFC4F60817181828193810E94331E5F
S113291020E030E040E250E40E94112188230CF0D2
S113292041C0E091EF03F0E0EE0FFF1FEE0FFF1F39
S1132930E05CFC4F6081718182819381E091EF03BF
S1132940F0E0EE0FFF1FEE0FFF1FE45DFC4F208150
S11329503181428153810E94AC200E94331E20E0C9
S113296030E040E05FE30E9411218823DCF4E09131
S1132970EF03F0E0A091EF03B0E0AA0FBB1FAA0F92
S1132980BB1FA05CBC4F8D919D910D90BC91A02D5F
S1132990EE0FFF1FEE0FFF1FE750FD4F8083918363
S11329A0A283B383E091EF03F0E0A091EF03B0E0E2
S11329B0AA0FBB1FAA0FBB1FA05CBC4F8D919D919A
S11329C00D90BC91A02DEE0FFF1FEE0FFF1FE45DD5
S11329D0FC4F80839183A283B383E091EF03F0E003
S11329E0E556FB4F81E08083809369045BC0E091EE
S11329F0EF03F0E0EE0FFF1FEE0FFF1FE750FD4F58
S1132A0060817181828193810E94331E2DEC3CECA4
S1132A104CEC5DE30E941121181674F0E091EF0371
S1132A20F0E0EE0FFF1FEE0FFF1FE750FD4F108287
S1132A3011821282138228C0E091EF03F0E0EE0FBE
S1132A40FF1FEE0FFF1FE750FD4F608171818281F0
S1132A509381C091EF03D0E0CC0FDD1FCC0FDD1FBD
S1132A60C750DD4FC880D980EA80FB802DEC3CEC58
S1132A704CEC5DEB0E946422A70196010E94AD20FC
S1132A80688379838A839B83E091EF03F0E0EE0F00
S1132A90FF1FEC53FB4F80819181069718F081E072
S1132AA080936904E091EF03F0E0EE0FFF1FEE0F57
S1132AB0FF1FE750FD4F60817181828193812091D6
S1132AC09F043091A0044091A1045091A204C091AC
S1132AD0EF03D0E0CC0FDD1FCC0FDD1FCA51DD4F5B
S1132AE0C880D980EA80FB800E946422A7019601F5
S1132AF00E94AD20688379838A839B83E091EF03EE
S1132B00F0E0EE0FFF1FEE0FFF1FE75FFC4F608149
S1132B10718182819381D0916904C1E020E030E029
S1132B20A9010E9411218111C0E0C11107C081E0F7
S1132B30D13009F080E0882309F429C31092690494
S1132B40E091EF03F0E0EE0FFF1FEE0FFF1FE75FD2
S1132B50FC4F608171818281938120E030E0A90182
S1132B600E941121811114C0E091EF03F0E0EE0FF7
S1132B70FF1FEE0FFF1FE750FD4F608171818281BF
S1132B80938120E030E0A9010E941121811115C038
S1132B90E091EF03F0E0EE0FFF1FEE0FFF1FE75F82
S1132BA0FC4F608171818281938120E030E0A90132
S1132BB00E941121882309F4D4C1C091EF03D0E00D
S1132BC0E091EF03F0E0EE0FFF1FEE0FFF1FE75F52
S1132BD0FC4F6081718182819381E091EF03F0E089
S1132BE0EE0FFF1FEE0FFF1FE750FD4F20813181D5
S1132BF0428153810E94AC20CC0FDD1FCC0FDD1F1E
S1132C00CC50DC4F688379838A839B83C091EF0324
S1132C10D0E0E091EF03F0E0EE0FFF1FEE0FFF1F97
S1132C20EC50FC4F608171818281938120E030E01F
S1132C3046E153E40E946422CC0FDD1FCC0FDD1F5C
S1132C40CE57DB4F688379838A839B83E091EF03BC
S1132C50F0E0EE0FFF1FEC53FB4F60817181C090D9
S1132C60B704D090B804E090B904F090BA04E091AD
S1132C70EF03F0E0EE0FFF1FEE0FFF1FEC50FC4FD1
S1132C804080518062807380C091EF03D0E0CC0F0C
S1132C90DD1FCC0FDD1FC85DDB4F88809980AA80C3
S1132CA0BB8080E090E00E94AE21A70196010E94C3
S1132CB06422A30192010E946422A50194010E944E
S1132CC0AD20688379838A839B83C091EF03D0E02E
S1132CD0E091EF03F0E0EE0FFF1FEE0FFF1FEC504B
S1132CE0FC4F6081718182819381E091EF03F0E078
S1132CF0EE0FFF1FEE0FFF1FE659FB4F20813181BE
S1132D0042815381C0901C04D0901D04E0901E04A5
S1132D10F0901F04E091EF03F0E0EE0FFF1FEC537F
S1132D20FB4F008111810E94AC20A70196010E94F3
S1132D3064226B017C01B80180E090E00E94AE2126
S1132D409B01AC01C701B6010E941521CC0FDD1F08
S1132D50CC0FDD1FC85FDB4F688379838A839B8335
S1132D60E091EF03F0E0A091EF03B0E0AA0FBB1FE6
S1132D70AA0FBB1FAC50BC4F8D919D910D90BC917F
S1132D80A02DEE0FFF1FEE0FFF1FE659FB4F8083B0
S1132D909183A283B383E091EF03F0E0EE0FFF1F72
S1132DA0EE0FFF1FE85DFB4F60817181828193818B
S1132DB02AE939E949E15EE30E946022181694F495
S1132DC0E091EF03F0E0EE0FFF1FEE0FFF1FE85D51
S1132DD0FB4F8AE999E9A9E1BEE380839183A28349
S1132DE0B38326C0E091EF03F0E0EE0FFF1FEE0F78
S1132DF0FF1FE85DFB4F60817181828193812AE925
S1132E0039E949E15EEB0E94112188238CF4E091B9
S1132E10EF03F0E0EE0FFF1FEE0FFF1FE85DFB4F27
S1132E208AE999E9A9E1BEEB80839183A283B38304
S1132E30C091EF03D0E0E091EF03F0E0EE0FFF1F4D
S1132E40EE0FFF1FEE57FB4F6081718182819381EA
S1132E50E091EF03F0E0EE0FFF1FEE0FFF1FE85DC0
S1132E60FB4F2081318142815381E091EF03F0E0F7
S1132E70EE0FFF1FEE0FFF1FE85FFB4FC080D180F6
S1132E80E280F380E091EF03F0E0EE0FFF1FEE0F1E
S1132E90FF1FE45EFC4F80809180A280B3800E947B
S1132EA0AD20A70196010E94AD20A50194010E94C6
S1132EB0AD20CC0FDD1FCC0FDD1FC05BDC4F688362
S1132EC079838A839B83E091EF03F0E0EE0FFF1F89
S1132ED0EE0FFF1FE05BFC4F608171818281938163
S1132EE020E030EC4FE754E40E946022181694F47A
S1132EF0E091EF03F0E0EE0FFF1FEE0FFF1FE05B2A
S1132F00FC4F80E090ECAFE7B4E480839183A2832C
S1132F10B38334C0E091EF03F0E0EE0FFF1FEE0F38
S1132F20FF1FE05BFC4F608171818281938120E00F
S1132F3030EC4FE754EC0E9411218823FCF4E0911B
S1132F40EF03F0E0EE0FFF1FEE0FFF1FE05BFC4FFF
S1132F5080E090ECAFE7B4EC80839183A283B383E9
S1132F600DC0E091EF03F0E0EE0FFF1FEE0FFF1F27
S1132F70E05BFC4F1082118212821382E091EF0316
S1132F80F0E0EE0FFF1FEC53FB4F11821082E09133
S1132F90EF03F0E0A091EF03B0E0AA0FBB1FAA0F6C
S1132FA0BB1FA05BBC4F8D919D910D90BC91A02D3A
S1132FB0EE0FFF1FEE0FFF1FE45EFC4F8083918333
S1132FC0A283B383E091EF03F0E0EE0FFF1FEE0F57
S1132FD0FF1FE05BFC4F608171818281938120E05F
S1132FE030E0A9010E941121811103C08FEF82B941
S1132FF06FC0E091EF03F0E0EE0FFF1FEE0FFF1F35
S1133000E05BFC4F608171818281938120E030E03C
S1133010A9010E9411218823E4F5E091EF03F0E077
S1133020A091EF03B0E0AA0FBB1FAA0FBB1FA05BC8
S1133030BC4F8D919D910D90BC91A02DB058EE0F79
S1133040FF1FEE0FFF1FE05BFC4F80839183A28381
S1133050B38332B1E091EF03F0E0E354FB4F2081FE
S1133060E091EF03F0E0E658FB4F608181E090E0EF
S1133070AC0102C0440F551F2A95E2F7242F209576
S1133080232302C0880F991F6A95E2F7822B82B925
S11330901FC032B1E091EF03F0E0E658FB4F20810E
S11330A0E091EF03F0E0E354FB4F608181E090E0B6
S11330B0AC0102C0440F551F2A95E2F7242F209536
S11330C0232302C0880F991F6A95E2F7822B82B9E5
S11330D08091EF03811114C0E091EF03F0E0EE0F53
S11330E0FF1FEE0FFF1FE05BFC4F60817181828147
S11330F093810E947D217093AB006093AA0047C026
S11331008091EF038230A1F4E091EF03F0E0EE0F41
S1133110FF1FEE0FFF1FE05BFC4F60817181828116
S113312093810E947D2170939900609398002FC031
S11331308091EF038330A1F4E091EF03F0E0EE0F10
S1133140FF1FEE0FFF1FE05BFC4F608171818281E6
S113315093810E947D217093AD006093AC0017C0F1
S11331608091EF03813099F4E091EF03F0E0EE0FEA
S1133170FF1FEE0FFF1FE05BFC4F608171818281B6
S113318093810E947D217093A9006093A800FF9110
S1133190EF91DF91CF91BF91AF919F918F917F91EB
S11331A06F915F914F913F912F911F910F91FF90DC
S11331B0EF90DF90CF90BF90AF909F908F907F90D3
S11331C06F905F904F900F900BBE0F900FBE0F90BB
S11331D01F901895CF93DF93C82FD0E0FE01E051E4
S11331E0FC4F80818F5F8083608170E080E090E09D
S11331F00E94B02120E030E040E450E40E946022CC
S113320088230CF451C080910901FE01E85EFB4F54
S1133210208190E002C0959587952A95E2F780FD7C
S113322006C081E0FE01E956FB4F808305C08FEFA5
S1133230FE01E956FB4F8083CE01880F991F880F4A
S1133240991FFC01E75CFB4F4081518162817381CE
S1133250DC01AD55BB4F4D935D936D937C931397F8
S1133260409184005091850060E070E04083518378
S113327062837383FE01E051FC4F1082FC01E75A24
S1133280FB4F4081518162817381DC01A75BBB4F9D
S11332904D935D936D937C931397108211821282E8
S11332A01382C556DB4F1882DF91CF9108958AE0CF
S11332B097EDA3E2BCE38093040490930504A093E8
S11332C00604B09307048FE39CE99093BC048093B5
S11332D0BB046091040470910504809106049091EC
S11332E007049B01AC0139D76093B7047093B80409
S11332F08093B9049093BA04209104043091050496
S1133300409106045091070460E070E080EE90E480
S11333108CD760931C0470931D0480931E049093B7
S11333201F0489ED94E6ADE3B7E48093920490938F
S11333309304A0939404B093950460910404709151
S1133340050480910604909107042AEF3DEE4FEAAC
S113335051E40E94642260939F047093A0048093BC
S1133360A1049093A20480E090E0A0E2B0E48093F2
S1133370200490932104A0932204B093230408957D
S1133380109281008FEF82B91092AB001092AA00C4
S113339010929900109298001092AD001092AC0017
S11333A01092A9001092A800089589E080938100EA
S11333B0089510923804809138048430B0F4E09178
S11333C03804F0E0EE0FFF1FEE0FFF1FEA51FD4F30
S11333D01082118212821382809138048F5F80934D
S11333E0380480913804843050F308951092EF0328
S11333F01092C1048091C104843008F0C6C081E0F9
S1133400E091C104F0E0EE0FFF1FEE0FFF1FE75045
S1133410FD4F1082118212821382E091C104F0E008
S1133420EE0FFF1FEE0FFF1FE659FB4F10821182B4
S113343012821382E091C104F0E0EE0FFF1FEE0F41
S1133440FF1FE85DFB4F1082118212821382E0910C
S1133450C104F0E0E956FB4F1082E091C104F0E0B2
S1133460EE0FFF1FEE0FFF1FED55FB4F1082118271
S113347012821382E091C104F0E0EE0FFF1FEE0F01
S1133480FF1FE75CFB4F1082118212821382E091CE
S1133490C104F0E0EE0FFF1FEE0FFF1FE75BFB4FD1
S11334A01082118212821382E091C104F0E0E55689
S11334B0FB4F8083E091C104F0E0EE0FFF1FEE0F9D
S11334C0FF1FE45EFC4F1082118212821382E0918E
S11334D0C104F0E0E051FC4F8083E091C104F0E0CE
S11334E0EE0FFF1FEE0FFF1FE75AFB4F10821182F2
S11334F012821382E091C104F0E0EE0FFF1FEE0F81
S1133500FF1FEC50FC4F1082118212821382E09153
S1133510C104F0E0EE0FFF1FEE0FFF1FE659FB4F53
S11335201082118212821382E091C104F0E0EE0F46
S1133530FF1FEE0FFF1FEE57FB4F10821182128206
S11335401382E091C104F0E0EE0FFF1FEE0FFF1FA6
S1133550E85FFB4F1082118212821382E091C10452
S1133560F0E0EE0FFF1FEE0FFF1FE05BFC4F108239
S11335701182128213829091C1049F5F9093C104BF
S11335809091C104943008F43BCF91CE08952EDF7E
S11335908091BB049091BC0490938900809388002F
S11335A022E020936F008AB1837F8AB98BB18C604B
S11335B08BB98DB18F7C8DB98EB180638EB9E9E6FC
S11335C0F0E08081806380838081806C8083EAE680
S11335D0F0E080818360808380818C6080838DB300
S11335E08C638DBB6B9AE1E0F1E08081886380831A
S11335F08FEF81B982B9EAE0F1E090819F70908306
S1133600E0E9F0E0908190689083908193609083EA
S1133610A1E9B0E09C9198609C93E0EAF0E090818D
S11336209068908390819062908390819860908359
S1133630908193609083E1EAF0E0908198609083B8
S11336409081936090839C9193609C93E8E1F4E073
S113365035E0308354E0518346E0428397E093831E
S1133660EAE7F4E0908391E0918363E0628353831B
S1133670EDEBF4E04083118222833383E4E2F4E04F
S113368080839183828393837BDE93DE7894089591
S1133690CF92DF92EF92FF92C090E602D090E702C1
S11336A0E090E802F090E90281E08093C204809106
S11336B0C204843040F5E091C204F0E0EE0FFF1F35
S11336C0EE0FFF1FEA51FD4F60817181828193816A
S11336D0A7019601A6D588236CF4E091C204F0E01A
S11336E0EE0FFF1FEE0FFF1FEA51FD4FC080D18088
S11336F0E280F3808091C2048F5F8093C204809142
S1133700C2048430C0F2C701B601FF90EF90DF908D
S1133710CF900895AB01BC011092C3048091C304FF
S11337208430B0F4E091C304F0E0EE0FFF1FEE0F1D
S1133730FF1FE75FFC4F4083518362837383809153
S1133740C3048F5F8093C3048091C304843050F317
S1133750089560E070E0CB01DDCF0895E9E0F3E087
S11337602483358346835783248735874687578741
S11337706083718382839383608771878287938751
S113378008958F929F92AF92BF92CF92DF92EF9261
S1133790FF926B017C0149015A017ADF6093B30403
S11337A07093B4048093B5049093B604C501B40136
S11337B0B1DF6EDF2091B3043091B4044091B504BD
S11337C05091B604C9D44FD2A70196012AD58823B3
S11337D084F3BFDFFF90EF90DF90CF90BF90AF9066
S11337E09F908F90089510927E0410927F041092FF
S11337F0800410928104089560917E0470917F0486
S113380080918004909181040895CF93DF93109266
S1133810E0041092E1041092E2041092E304C5E083
S1133820D0E087E00E94C000BC01990F880B990B7F
S113383097D52091E0043091E1044091E204509145
S1133840E3048BD46093E0047093E1048093E20476
S11338509093E304219729F720E030E040EA50E414
S1133860E4D4DF91CF910895CF92DF92EF92FF924B
S11338701F93CF93DF93182FC3E0D0E0C12CD12C3A
S11338807601812F0E94C000BC01990F880B990B0F
S113389067D59B01AC01C701B6015FD46B017C0104
S11338A0219779F720E030E040E450E4BED420E0F2
S11338B030E040EA50E408D69B01AC0160E07CECC7
S11338C08FE496E4B2D46B017C0120E030E04CE05C
S11338D052E4F6D5181644F40F2EC12CD12CFAE775
S11338E0EF2EF4E4FF2EF02DC701B601DF91CF9146
S11338F01F91FF90EF90DF90CF900895AF92BF9209
S1133900CF92DF92EF92FF920F931F93CF93DF93A7
S1133910C2E0D0E0E12CF12C00E010E0BE018EED1D
S113392090E026D3BC01990F880B990B19D5A62ECC
S1133930B72EC82ED92E2E2D3F2D402F512FC0D556
S1133940181624F4EA2CFB2C0C2D1D2D2196C930BD
S1133950D10521F76E2D7F2D802F912FDF91CF91EF
S11339601F910F91FF90EF90DF90CF90BF90AF9099
S11339700895AF92BF92CF92DF92EF92FF920F938E
S11339801F93CF93DF93C2E0D0E0E12CF12C00E051
S113399010E0BE0180ED90E0EBD2BC01990F880BE2
S11339A0990BDED4A62EB72EC82ED92E2E2D3F2D40
S11339B0402F512F85D5181624F4EA2CFB2C0C2DFE
S11339C01D2D2196C930D10521F76E2D7F2D802F15
S11339D0912FDF91CF911F910F91FF90EF90DF9086
S11339E0CF90BF90AF900895CF92DF92EF92FF9265
S11339F0CF930BDF6B017C018AE392E06ED1C701A8
S1133A00B60119D28EE392E068D120E030E048E4B8
S1133A1054E4C701B60154D51816ACF020E030E8E0
S1133A2049E054E4C701B6014BD5181674F0C1E05F
S1133A3020E030E048E453E4C701B60141D518164C
S1133A402CF0C0E003C0C2E001C0C0E08C2FCF91D5
S1133A50FF90EF90DF90CF9008951092DA041092C7
S1133A60D50418990FC002C0189904C081E080934E
S1133A70DA0405C08093D5048F5F8730A9F780915D
S1133A80DA04089581E08093D50482E0EDCF1092AA
S1133A90DA041092D5041A990FC002C01A9904C00E
S1133AA081E08093DA0405C08093D5048F5F87306A
S1133AB0A9F78091DA04089581E08093D50482E027
S1133AC0EDCF1092DA041092D50419990FC002C0F8
S1133AD0199904C081E08093DA0405C08093D50469
S1133AE08F5F8730A9F78091DA04089581E080938D
S1133AF0D50482E0EDCF1092DA041092D5048091BF
S1133B00060180FD10C003C0908190FD04C081E0D7
S1133B108093DA0405C08093D5048F5F8730A1F7C2
S1133B208091DA04089581E08093D50482E0E6E090
S1133B30F1E0EACF1092DA041092D50480910601E4
S1133B4081FD10C003C0908191FD04C081E0809389
S1133B50DA0405C08093D5048F5F8730A1F7809184
S1133B60DA04089581E08093D50482E0E6E0F1E090
S1133B70EACF84B1887F84B985B1876085B9999883
S1133B80A19AE7E0F1E080818C7F8083E8E0F1E0B6
S1133B908081836080830895CF92DF92EF92FF92B9
S1133BA01092DF0482E090E00E94C8016B017C0166
S1133BB06093D6047093D7048093D8049093D90467
S1133BC020E030E04CE052E47BD418164CF020E0C6
S1133BD030E04CE052ECC701B60123D3882324F42F
S1133BE083E08093DF0436C020E030E040E251E41B
S1133BF0C701B60165D418166CF020E030E040EA45
S1133C0050E4C701B6015CD4181644F48091D4047E
S1133C10813021F481E08093DF041CC020E030E097
S1133C2040E251ECC701B601FCD288236CF020E0DD
S1133C3030E040EA50ECC701B601F3D2882344F4E3
S1133C408091D404823021F482E08093DF0402C0A6
S1133C501092DF048091DF048093D404FF90EF90EE
S1133C60DF90CF900895CF92DF92EF92FF926B0195
S1133C707C0120E030E0A901D4D2882324F4F7FAAF
S1133C80F094F7F8F094C701B601FF90EF90DF903D
S1133C90CF90089580919D0290919E02A0919F02E1
S1133CA0B091A002892F9A2FAB2FBB27A7FDBA95FD
S1133CB08093C50080919D028093C40088E1809325
S1133CC0C10086E08093C2000895E0ECF0E09081AA
S1133CD095FFFDCF8093C6000895EF92FF920F9356
S1133CE01F93CF93DF938C017C01C0E0D0E005C02B
S1133CF0F70181917F01E9DF2196F801019000200D
S1133D00E9F73197E01BF10BCE17DF0788F3DF915A
S1133D10CF911F910F91FF90EF9008952F923F92B2
S1133D204F925F927F928F929F92AF92BF92CF9267
S1133D30DF92EF92FF920F931F93CF93DF93CDB750
S1133D40DEB7A0970FB6F894DEBF0FBECDBF6B01F0
S1133D507C0199230CF04CC081E992E0BEDFF09421
S1133D60E094D094C094C11CD11CE11CF11CC1147A
S1133D70D104E104F10419F480E3A7DF3FC08E010C
S1133D800F5F1F4F5E0181E2A80EB11CF801119272
S1133D90EA15FB05E1F70F2EFFE17F2EF02D0F2E24
S1133DA0FAE02F2E312C412C512CF02D88248394B1
S1133DB0912C8C0E9D1E870C911CC701B601A2018B
S1133DC091010CD4605DF4016083C22ED32EE42EE5
S1133DD0F52E7A94C114D104E104F10439F7F80101
S1133DE081918F01811171DF0A151B05C1F706C08E
S1133DF0672B682B692B09F0C2CFBECFA0960FB6F4
S1133E00F894DEBF0FBECDBFDF91CF911F910F910C
S1133E10FF90EF90DF90CF90BF90AF909F908F90E6
S1133E207F905F904F903F902F9008958DE04DDFED
S1133E308AE04BCF08958F929F92AF92BF92CF9218
S1133E40DF92EF92FF924B015C0120E030E0A90188
S1133E50E8D188233CF481E992E03FDFB7FAB094DB
S1133E60B7F8B094C501B40148D26B017C0120E0DD
S1133E7030E04AE754E4C501B40126D34B015C01A8
S1133E800D2C000CEE08FF08C701B60147DF83E9DB
S1133E9092E023DFC701B60163D220E030E04AE7B5
S1133EA054E412D32AD2072E000C880B990B58D253
S1133EB09B01AC01C501B4014FD11FD2072E000CE8
S1133EC0880B990B2BDFFF90EF90DF90CF90BF9082
S1133ED0AF909F908F900895823091053CF4909319
S1133EE0E5048093E40480E090E008958091E40484
S1133EF09091E50408951092B90088E48093B80085
S1133F000895ECEBF0E08081846A808380818823CB
S1133F10ECF78091B900883041F02091B90081E03C
S1133F2090E0203121F480E0089580E090E008954D
S1133F308093BB0084E88093BC00ECEBF0E08081CC
S1133F408823ECF78091B900883161F08091B90041
S1133F50883259F02091B90081E090E0203439F49E
S1133F6080E0089580E090E0089580E090E0089576
S1133F70CF92DF92EF92FF920F931F93CF93DF9331
S1133F808C017B01BEDFEC01892B31F084E9809345
S1133F90BC00C0E0D0E02BC0C801CADF6C01892B93
S1133FA021F084E98093BC0022C0C701C1DFEC0189
S1133FB0892B29F084E98093BC00E60118C0A1DFB5
S1133FC0C8018160B5DF892B21F084E98093BC00AE
S1133FD00EC084E88093BC00ECEBF0E08081882381
S1133FE0ECF784E98093BC00C091BB00D0E0CE0123
S1133FF0DF91CF911F910F91FF90EF90DF90CF90C1
S11340000895CF92DF92EF92FF920F931F93CF9375
S1134010DF938C017B0175DFEC01892B31F084E99E
S11340208093BC00C0E0D0E036C0C80181DF6C01E1
S1134030892B21F084E98093BC002DC0C70178DF6F
S1134040EC01892B29F084E98093BC00E60123C0AC
S113405058DFC80181606CDF892B21F084E98093EB
S1134060BC0019C084EC8093BC00ECEBF0E08081D0
S11340708823ECF7C091BB0084E88093BC00ECEB90
S1134080F0E080818823ECF78091BB0094E9909361
S1134090BC00D0E0D82BCE01DF91CF911F910F91BE
S11340A0FF90EF90DF90CF900895CF92DF92EF9240
S11340B0FF920F931F93CF93DF938C017B016A01CF
S11340C020DFEC01892B31F084E98093BC00C0E04F
S11340D0D0E038C0C8012CDF8C01892B51F084E971
S11340E08093BC008FE19EE40197F1F700C00000CB
S11340F029C0C7011DDFEC01892B59F084E98093A5
S1134100BC008FE19EE40197F1F700C00000E801D4
S113411019C0C6010DDF892B51F084E98093BC00DE
S11341208FE19EE40197F1F700C000000BC084E921
S11341308093BC008FE19EE40197F1F700C000007A
S1134140C1E0D0E0CE01DF91CF911F910F91FF909C
S1134150EF90DF90CF9008955058BB27AA270ED038
S113416075C166D130F06BD120F031F49F3F11F46A
S11341701EF45BC10EF4E095E7FB51C1E92F77D142
S113418080F3BA17620773078407950718F071F470
S11341909EF58FC10EF4E0950B2EBA2FA02D0B01C6
S11341A0B90190010C01CA01A0011124FF27591B78
S11341B099F0593F50F4503E68F11A16F040A22F7E
S11341C0232F342F4427585FF3CF469537952795EF
S11341D0A795F0405395C9F77EF41F16BA0B620BEE
S11341E0730B840BBAF09150A1F0FF0FBB1F661F35
S11341F0771F881FC2F70EC0BA0F621F731F841F78
S113420048F4879577956795B795F7959E3F08F09D
S1134210B3CF9395880F08F09927EE0F979587955C
S11342200895D9D008F481E008950CD00FC107D1C6
S113423040F0FED030F021F45F3F19F0F0C051118E
S113424039C1F3C014D198F39923C9F35523B1F3B9
S1134250951B550BBB27AA2762177307840738F0F1
S11342609F5F5F4F220F331F441FAA1FA9F333D050
S11342700E2E3AF0E0E830D091505040E695001C04
S1134280CAF729D0FE2F27D0660F771F881FBB1FC0
S1134290261737074807AB07B0E809F0BB0B802D9A
S11342A0BF01FF2793585F4F2AF09E3F510568F0E6
S11342B0B6C000C15F3FECF3983EDCF3869577957A
S11342C06795B795F7959F5FC9F7880F911D9695E8
S11342D0879597F90895E1E0660F771F881FBB1F44
S11342E0621773078407BA0720F0621B730B840BF1
S11342F0BA0BEE1F88F7E095089504D06894B111C5
S1134300D9C00895BCD088F09F5790F0B92F992751
S1134310B751A0F0D1F0660F771F881F991F1AF0CC
S1134320BA95C9F712C0B13081F0C3D0B1E0089595
S1134330C0C0672F782F8827B85F39F0B93FCCF316
S1134340869577956795B395D9F73EF490958095C2
S1134350709561957F4F8F4F9F4F0895E89409C0E2
S113436097FB3EF490958095709561957F4F8F4FA4
S11343709F4F9923A9F0F92F96E9BB279395F695BA
S1134380879577956795B795F111F8CFFAF4BB0F38
S113439011F460FF1BC06F5F7F4F8F4F9F4F16C09C
S11343A0882311F096E911C0772321F09EE8872F26
S11343B0762F05C0662371F096E8862F70E060E0E2
S11343C02AF09A95660F771F881FDAF7880F96955B
S11343D0879597F90895990F0008550FAA0BE0E8FF
S11343E0FEEF16161706E807F907C0F012161306B3
S11343F0E407F50798F0621B730B840B950B39F4F3
S11344000A2661F0232B242B252B21F408950A2658
S113441009F4A140A6958FEF811D811D089597F998
S11344209F6780E870E060E008959FEF80EC089556
S113443000240A941616170618060906089500247F
S11344400A9412161306140605060895092E0394F9
S1134450000C11F4882352F0BB0F40F4BF2B11F46D
S113446060FF04C06F5F7F4F8F4F9F4F089557FDCC
S11344709058440F551F59F05F3F71F04795880FCE
S113448097FB991F61F09F3F79F087950895121665
S113449013061406551FF2CF4695F1DF08C0161611
S11344A017061806991FF1CF8695710561050894C2
S11344B00895E894BB2766277727CB0197F90895D9
S11344C08ADF08F48FEF08950BD0C0CFB1DF28F056
S11344D0B6DF18F0952309F0A2CFA7CF1124EACFB5
S11344E0C6DFA0F3959FD1F3950F50E0551F629F4F
S11344F0F001729FBB27F00DB11D639FAA27F00D39
S1134500B11DAA1F649F6627B00DA11D661F829F5F
S11345102227B00DA11D621F739FB00DA11D621F44
S1134520839FA00D611D221F749F3327A00D611D61
S1134530231F849F600D211D822F762F6A2F112443
S11345409F5750408AF0E1F088234AF0EE0FFF1F96
S1134550BB1F661F771F881F91505040A9F79E3FCD
S1134560510570F05CCFA6CF5F3FECF3983EDCF3CF
S1134570869577956795B795F795E7959F5FC1F70A
S1134580FE2B880F911D9695879597F90895AA1B80
S1134590BB1B51E107C0AA1FBB1FA617B70710F02A
S11345A0A61BB70B881F991F5A95A9F7809590955C
S11345B0BC01CD01089597FB072E16F4009406D094
S11345C077FD08D0E4DF07FC05D03EF49095819593
S11345D09F4F0895709561957F4F0895052E97FB21
S11345E016F400940FD057FD05D026D007FC02D056
S11345F046F408C050954095309521953F4F4F4F54
S11346005F4F089590958095709561957F4F8F4F7A
S11346109F4F0895EE0FFF1F881F8BBF0790F691E1
S1134620E02D19942BD0A59F900DB49F900DA49FBD
S1134630800D911D11240895A1E21A2EAA1BBB1B03
S1134640FD010DC0AA1FBB1FEE1FFF1FA217B3075A
S1134650E407F50720F0A21BB30BE40BF50B661F70
S1134660771F881F991F1A9469F760957095809534
S113467090959B01AC01BD01CF010895A29FB001AB
S1134680B39FC001A39F700D811D1124911DB29F82
S1114690700D811D1124911D0895F894FFCF23
S113469E0C0301020104696E6974200A006D6169DC
S11346AE6E6944780A0067697261202D39300A00F8
S11346BE3138302D4F720A003138302D416E744F1F
S11346CE720A0041763330780A0020202000202020
S11346DE2020200A0050756C73616E7465200A00E8
S11346EE50616C6120446176616E7469200A0042E7
S11346FE6166666F204478200A00426166666F2008
S113470E5378200A00426166666F2044692044781B
S113471E200A00426166666F204469205378200A9D
S10B472E002D002E002C0000F8
S9030000FC
