S0190000526F626F74325F636F646963655F312E302E737265631F
S11300007BC0000099C0000097C000000CC4000031
S113001033C400005AC4000081C400008DC0000035
S11300208BC0000089C0000087C0000085C00000AC
S113003083C0000081C000007FC000007DC00000BC
S11300407BC000000C94CD0D77C0000075C000008B
S113005073C0000071C000006FC000006DC00000DC
S11300606BC0000069C0000067C0000065C00000EC
S113007063C0000061C000005FC000005DC00000FC
S11300805BC0000059C0000057C0000055C000000C
S113009053C0000051C000004FC000004DC000001C
S11300A04BC0000049C0000047C0000045C000002C
S11300B043C0000041C000003FC000003DC000003C
S11300C03BC0000039C0000037C0000035C000004C
S11300D033C0000031C000002FC000002DC000005C
S11300E02BC00000A50D7D0D890D910D8D0D810D89
S11300F0850D950D990D9D0D11241FBECFEFD1E2F5
S1130100DEBFCDBF00E00CBF12E0A0E0B2E0E8E14A
S1130110F1E400E00BBF02C007900D92A436B107D2
S1130120D9F724E0A4E6B2E001C01D92A939B207D0
S1130130E1F71DD40C948A2063CFEAE7F0E08081D4
S113014087608083ACE7B0E08C9180648C9380817D
S1130150806880838081806480830895CF93DF9357
S113016022E030E0ACE7B0E0CBE7D0E0482F4770C6
S1130170EAE7F0E09C91907F9C939881977F988325
S1130180883020F49C91982B9C9306C09C91942BCE
S11301909C939881986098839081906490839081D7
S11301A096FDFDCF2150310929F780917800909177
S11301B07900DF91CF91089540E050E06DE370E065
S11301C082E590E00E947C1A89E698E10197F1F7B4
S11301D000C0000041E050E067E070E082E590E09C
S11301E00E947C1A4091660290E2499F900111247A
S11301F080910302482F50E0440F551F440F551FB0
S1130200440F551F422B532B80910402482B68E066
S113021070E082E590E00E947C1A4091050250E073
S1130220440F551F440F551F440F551F80916702FB
S1130230482B6AE070E082E590E00E947C1A4091CD
S1130240680250E06BE070E082E590E00E947C1A66
S11302504091650280E2489F90011124809102023E
S1130260482F50E0440F551F440F551F440F551F8E
S1130270422B532B80910102482B69E070E082E508
S113028090E00E947C1A40E050E067E070E082E574
S113029090E00E947C1A41E050E060E470E082E566
S11302A090E00E947C1A41E050E06BE370E082E54C
S11302B090E00E947C1A4091640250E06EE370E08A
S11302C082E590E00E947C1A4091000250E06DE3C8
S11302D070E082E590E00E947C1A89E698E101973B
S11302E0F1F700C000000895CF93DF93EC0183E0A1
S11302F090E00E949919892BD1F781E090E00E9447
S11303009919C230D10569F0C330D10591F0219714
S1130310C1F46AE170E082E590E00E94281AEC01E1
S113032012C06CE170E082E590E00E94281AEC01B2
S11303300AC06EE170E082E590E00E94281AEC01A8
S113034002C0C0E0D9E180E090E00E949919BE01AA
S1130350DD0F880B990B0E94E11E20E030E040E89D
S11303605DE30E94951FDF91CF910895823091053E
S113037049F440917102509172026091730270913C
S1130380740203C040E050E0BA01409375025093F8
S113039076026093770270937802A6DF209175024B
S11303A03091760240917702509178020C94DD1DD1
S11303B0089580E00E94B50D80E00E94A90D80E0C0
S11303C00E94C10D87E092E00E949F1818B808951A
S11303D0ECEBF0E080818823ECF708958091B9007C
S11303E0887F883041F09091B900987F81E0903106
S11303F019F480E0089580E00895ECEBF0E080814A
S1130400846A8083E5DFEADF21E030E0811102C005
S113041020E030E0C90108959091B900987F81E00F
S1130420983109F480E008959091B900987F81E0B3
S1130430903409F480E008959091B900987F81E0A8
S1130440983209F480E008958093BB0084E8809397
S1130450BC00BEDFF1DF882359F0DEDF882359F0CA
S1130460E3DF21E090E0811101C020E0822F0895B4
S113047080E090E0089580E090E0089584E980931E
S1130480BC0008959091B900987F81E0983509F4F3
S113049080E0089584E88093BC009ADFF3DF209124
S11304A0BB0030E0A901582BCA0108959091B9000E
S11304B0987F81E0903509F480E0089584EC80937E
S11304C0BC0086DFF3DF2091BB0030E0A901582B8C
S11304D0CA0108951092B90082E18093B80008958A
S11304E088E090E09093020380930103249A83E8C8
S11304F08093B00087E08093B10084E18093B300DF
S113050008954F925F926F927F929F92AF92BF92A3
S1130510CF92DF92EF92FF920F931F93CF93DF93CB
S1130520182FC62F0E944D166093B4027093B50223
S11305308093B6029093B7026093240370932503CB
S11305408093260390932703111104C081E00E9435
S1130550C10D03C081E00E94A90D8CE18093B3001A
S11305601092E0021092B8021092DF02109213036C
S1130570111102C004E101C005E1111102C085E1BD
S113058001C084E1B82ED1E00F2EF3EBEF2EF12C55
S1130590F02D0F2EFAE1CF2EF02D0F2EFCE1DF2EE1
S11305A0F02D0F2EF4E19F2EF02D6894AA24A1F8CB
S11305B08091E002811125C00E944D164090B40242
S11305C05090B5026090B6027090B702DC01CB0186
S11305D084199509A609B709883C9105A105B105B7
S11305E080F0CC2371F08091010390910203892B58
S11305F009F447C08091DF02811109C0D093E00261
S113060006C08091010390910203892BE1F180914E
S1130610E0028130E1F0C0F10E944D164090DB020F
S11306205090DC026090DD027090DE02DC01CB01B0
S113063084199509A609B709C297A105B10520F146
S11306408091E00280FD03C0F701D08202C0F7016F
S1130650C0828091E0028F5F8093E0020E944D1679
S11306606093DB027093DC028093DD029093DE02E0
S11306708091E0028D3040F01092E002D093DF02CE
S113068008C0C0E001C0C0E08091DF02813009F001
S113069062C08091B80281110EC0F7010083D0932B
S11306A0B8020E944D166093A0027093A102809339
S11306B0A2029093A3028091B802813019F50E949E
S11306C04D164090A0025090A1026090A20270903A
S11306D0A302DC01CB0184199509A609B709883C5A
S11306E09105A105B10570F0F701B082A092B8029E
S11306F00E944D166093A0027093A1028093A202FF
S11307009093A3028091B802823029F50E944D167D
S11307104090A0025090A1026090A2027090A302A7
S1130720DC01CB0184199509A609B709883C910518
S1130730A105B10580F0F70190821092DF02C1504B
S11307408091010390910203019790930203809397
S113075001031092B8020E944D1640902403509059
S113076025036090260370902703DC01CB018419D4
S11307709509A609B709843F9140A105B10528F15F
S11307808091130381110CC0111104C083E00E94F5
S1130790C10D03C083E00E94A90DD09313030BC0C5
S11307A0111104C08D2F0E94C10D03C08D2F0E9412
S11307B0A90D109213030E944D16609324037093A5
S11307C0250380932603909327030E944D1640909F
S11307D0B4025090B5026090B6027090B702DC018A
S11307E0CB0184199509A609B70988389341A10555
S11307F0B10508F4DDCEC111DBCE86E00E94A90D5F
S113080086E00E94C10DDF91CF911F910F91FF905F
S1130810EF90DF90CF90BF90AF909F907F906F90BC
S11308205F904F9008951F920F920FB60F9211246C
S11308300BB60F922F933F934F935F936F937F93D6
S11308408F939F93AF93BF93EF93FF9381E00E94A5
S11308504313FF91EF91BF91AF919F918F917F913E
S11308606F915F914F913F912F910F900BBE0F901D
S11308700FBE0F901F9018951F920F920FB60F92F4
S113088011240BB60F922F933F934F935F936F9363
S11308907F938F939F93AF93BF93EF93FF9380E0E6
S11308A00E944313FF91EF91BF91AF919F918F915C
S11308B07F916F915F914F913F912F910F900BBE5C
S11308C00F900FBE0F901F9018951F920F920FB6A6
S11308D00F9211240BB60F922F933F934F935F9374
S11308E06F937F938F939F93AF93BF93EF93FF93F4
S11308F082E00E944313FF91EF91BF91AF919F91CA
S11309008F917F916F915F914F913F912F910F90B4
S11309100BBE0F900FBE0F901F9018951F920F9251
S11309200FB60F9211240BB60F922F933F934F9350
S11309305F936F937F938F939F93AF93BF93EF9343
S1130940FF9383E00E944313FF91EF91BF91AF9116
S11309509F918F917F916F915F914F913F912F91D3
S11309600F900BBE0F900FBE0F901F901895CF9352
S1130970DF93CDB7DEB72E970FB6F894DEBF0FBE68
S1130980CDBF0E94B20D0E94BE0D0E94CA0D0E94EE
S11309907C180E94911689E092E00E949F189ADDCB
S11309A00E94EE170E940D1D07DC0E9421150E9473
S11309B02F14C3DB95DD8AE999E9A9E9BFE38093A4
S11309C02E0390932F03A0933003B093310384EB51
S11309D090E090932D0380932C0381E080932B036C
S11309E010922A03109229030E9433142FEF89E6F0
S11309F098E1215080409040E1F700C0000082E07F
S1130A0090E072DC609371027093720280937302BF
S1130A109093740280E192E00E949F1810E000E03D
S1130A20312C2224239480E090E09E878D8783E0FC
S1130A300E94B50D0E944E17813071F42AE939E9FC
S1130A4049E95FEB60E070E080EF91E40E941A16E0
S1130A50122D322C1E861D8684E00E9456166B01D0
S1130A607C0186E00E9456162B013C0183E00E9423
S1130A7056164B015C0185E00E94561669837A8301
S1130A808B839C8380E00E94B50D20E030E040EA37
S1130A9051E4C701B6010E94911F882304F120E0AC
S1130AA030E040EA51E4C301B2010E94421E8823AF
S1130AB0B4F460912E0370912F03809130039091D0
S1130AC031030E94E31586E00E94561620E030E0D0
S1130AD040EA51E40E94421E8823ACF307C220E09E
S1130AE030E040EA51E4C501B4010E94911F88231B
S1130AF014F120E030E040EA51E469817A818B818D
S1130B009C810E94421E8823B4F460912E0370914C
S1130B102F0380913003909131030E94E31585E007
S1130B200E94561620E030E040EA51E40E94421E42
S1130B308823ACF3DBC120E030E040EA51E4C70194
S1130B40B6010E94421E88231CF520E030E040EAF2
S1130B5051E4C301B2010E94911F8823CCF080911B
S1130B602E0390912F03A0913003B0913103BC0167
S1130B70CD0190580E94E31584E00E94561620E0AF
S1130B8030E040EA51E40E94421E8823ACF3AEC137
S1130B9020E030E040EA51E4C501B4010E94421E65
S1130BA08823C4F520E030E040EA51E469817A8189
S1130BB08B819C810E94911F882364F180912E0374
S1130BC090912F03A0913003B0913103BC01CD016A
S1130BD090580E94E31583E00E94561620E030E00E
S1130BE040EA51E40E94421E8823ACF37FC11CD426
S1130BF060E070E080E89FE30E94E3150E94A01586
S1130C000E94651820E030E040EC50E40E94421E4F
S1130C1088236CF30E94021683E0A7D784E00E9425
S1130C20561669837A838B839C8386E00E945616CA
S1130C3069877A878B879C8783E00E9456166B01AD
S1130C407C0185E00E9456166D837E838F8398878E
S1130C5082E00E9456164B015C0182E00E94561607
S1130C602B013C01111143C08D859E8505970CF025
S1130C703EC020E030E040EA51E469817A818B8112
S1130C809C810E94911F181664F020E030E040EA35
S1130C9051E469857A858B859C850E94911F18167D
S1130CA034F5822D62D760E070E084EB92E428D1C1
S1130CB08D859E8501969E878D872D813E814F81EE
S1130CC05885C701B6010E94DE1D20E030E040E0F7
S1130CD05FE30E94951F20E030E040EA51E40E9467
S1130CE0421E18160CF0022D86E03FD792C020E079
S1130CF030E040E251E4C501B4010E94421E1816DE
S1130D0084F420E030E040E251E4C301B2010E94E7
S1130D10421E181634F491E0391619F0113009F016
S1130D2078C082E022D720E030E040E951E4C701F6
S1130D30B6010E94911F18165CF520E030E040E9EE
S1130D4051E46D817E818F8198850E94911F1816D0
S1130D50FCF460E070E084EB92ECD2D029853A8513
S1130D604B855C8569817A818B819C810E94DE1D23
S1130D7020E030E040E05FE30E94951F20E030E097
S1130D8040EA51E40E94421E18160CF439C0B1C066
S1130D90A701960169817A818B819C810E94911FB0
S1130DA088236CF060E070E084EB92E4A9D03CD33B
S1130DB060E070E084EB92E4A3D035D30CC060E033
S1130DC070E084EB92EC9CD02FD360E070E084EB75
S1130DD092EC96D028D3A3019201C501B4010E94DC
S1130DE0DE1D20E030E040E05FE30E94951F20E03C
S1130DF030E040EA51E40E94421E18160CF079C01B
S1130E0086E0B3D6013049F010E0312C1E861D86F1
S1130E105BC0013009F046C004C010E0312C1E86CE
S1130E201D8685E0A2D6FFD26DEC7CEC8CE49FEBB2
S1130E300E94E3150E944D166B017C010E944D1621
S1130E40DC01CB018C199D09AE09BF09883E934092
S1130E50A105B10598F320E030E040EC5FEB60E0E1
S1130E6070E080E09FE30E941A160E94331460E051
S1130E7070E080E89FE30E94E31507C0D5D260E0EC
S1130E8070E080E89FE30E94E3150E94A01520E033
S1130E9030E040E050E40E94421E88237CF30E942C
S1130EA0021600E08D859E85059774F060912E03EF
S1130EB070912F0380913003909131030E94AE1EF4
S1130EC0CB015ED31E861D86AED286E04ED6ACD252
S1130ED060912E0370912F03809130039091310320
S1130EE00E94AE1ECB014CD39FD2A1CD0E943314DD
S1130EF085CE86E03AD610E0312C1E861D8691CF31
S1130F004F925F926F927F928F929F92AF92BF9215
S1130F10CF92DF92EF92FF92CF93DF9300D01F9294
S1130F20CDB7DEB74B015C0160E070E0CB010E94FD
S1130F30E31581E090E01ADA6B017C0160934F03C2
S1130F4070935003809351039093520310924E0375
S1130F5010924D036093390370933A0380933B03DB
S1130F6090933C03C501B4010E94AE1ECB016AE517
S1130F7070E00E940420892B09F0F5C0A7019601B6
S1130F80C501B4010E94DD1D2B013C0160934103A6
S1130F9070934203809343039093440320E030E032
S1130FA044E352E4C701B6010E94911F1816DCF411
S1130FB020E030E047E053E4C701B6010E94421E3E
S1130FC018168CF020E030E044EB52E4C301B20187
S1130FD00E94DE1D60934103709342038093430398
S1130FE09093440349C020E030E047E053E4C70154
S1130FF0B6010E94911F1816DCF420E030E041E6AF
S113100053E4C701B6010E94421E18168CF020E07A
S113101030E044E353E4C301B2010E94DE1D609357
S1131020410370934203809343039093440324C089
S113103020E030E041E653E4C701B6010E94911F6D
S11310401816D4F420E030E84DE953E4C701B601A2
S11310500E94421E181684F020E030E047E853E472
S1131060C301B2010E94DE1D6093410370934203E9
S1131070809343039093440320E030E0A901C50129
S1131080B4010E94911F88231CF1C0904103D090A9
S11310904203E0904303F090440320E030E0A901D0
S11310A0C701B6010E94421E88230CF054C020E000
S11310B030E044EB53E4C701B6010E94DE1D6093A7
S11310C0410370934203809343039093440343C0CA
S11310D0C0904103D0904203E0904303F090440356
S11310E020E030E044EB53ECC701B6010E94421EFD
S11310F0882384F420E030E044EB53E4C701B601D4
S11311000E94DE1D60934103709342038093430366
S113111090934403C0904103D0904203E090430372
S1131120F090440320E030E0A901C701B6010E9419
S1131130911F181684F420E030E044EB53E4C70117
S1131140B6010E94DD1D60934103709342038093B6
S11311504303909344038090410390904203A090F2
S11311604303B090440320E030E0A901C501B40179
S11311700E94911F181624F481E08093840303C015
S11311808FEF8093840360918403062E000C770B09
S1131190880B990B0E94E11E23E333E343EB5FE3E7
S11311A00E94951F9B01AC0190580E9407160F2EB8
S11311B0F3E34F2E542CF3EB6F2EFFE37F2EF02D31
S11311C081E090E0D3D86B017C016093910370932C
S11311D09203809393039093940320913903309165
S11311E03A0340913B0350913C030E94DD1D698307
S11311F07A838B839C8320E030E044E353E40E94B1
S1131200911F181654F480914D0390914E03019749
S113121090934E0380934D0315C020E030E044E3E7
S113122053EC69817A818B819C810E94421E8823C0
S11312304CF480914D0390914E03019690934E038C
S113124080934D03A7019601C501B4010E94DD1DE1
S11312506B017C0180914D0390914E0328E631E0AF
S1131260829FB001839F700D929F700D1124072EF1
S1131270000C880B990B0E94E11E9B01AC01C70175
S1131280B6010E94DD1D20914F033091500340911F
S11312905103509152030E94DE1D6B017C0120E03A
S11312A030E0A901C501B4010E94421E88234CF01C
S11312B0C0928003D0928103E0928203F092830370
S11312C00CC0F7FAF094F7F8F094C0928003D0922F
S11312D08103E0928203F0928303C0908003D09054
S11312E08103E0908203F090830320E030E040EF3C
S11312F051E4C701B6010E94421E18160CF120E009
S113130030E040EA50ECC701B6010E94911F8823E7
S1131310BCF020E030E040EF51E4C701B6010E9488
S1131320461E2DEC3CEC4CEC5EE30E94DE1D60930B
S11313306A0370936B0380936C0390936D0308C0EE
S113134040926A0350926B0360926C0370926D0337
S113135060918403062E000C770B880B990B0E9476
S1131360E11E20916A0330916B0340916C0350910C
S11313706D030E94951F9B01AC0190580E940716B3
S11313808091910390919203A0919303B09194035F
S11313908093390390933A03A0933B03B0933C03A7
S11313A020E030E0A9016091800370918103809175
S11313B08203909183030E94911F18160CF400CFAE
S11313C00E940216C501B4010E94651820E030E0B5
S11313D044EB52E40E94421E882351F020E030E0A6
S11313E044E353E4C501B4010E94421E811108C0C4
S11313F0C501B4010E94AE1E70932D0360932C03AB
S11314000F900F900F900F90DF91CF91FF90EF907E
S1131410DF90CF90BF90AF909F908F907F906F9010
S11314205F904F9008950895CF92DF92EF92FF92CC
S1131430CF9380912B03813009F09AC00E94121738
S113144060936403709365038093660390936703CA
S113145085E00E9456166B017C0183E00E945616BB
S11314609B01AC01C701B6010E94DE1D20E030E003
S113147040E05FE30E94951F6B017C016093600371
S113148070936103809362039093630320E030E0E0
S113149040EF51E4609164037091650380916603A9
S11314A0909167030E94911F88239CF020E030E014
S11314B040EA51E4C701B6010E94421E88235CF44D
S11314C00E94021610922B0361E081E01AD8C1E059
S11314D003C0C0E001C0C0E00E94D61660938D0333
S11314E070938E0380938F039093900386E00E9401
S11314F056166B017C0184E00E9456169B01AC01D8
S1131500C701B6010E94DE1D20E030E040E05FE349
S11315100E94951F6B017C01609345037093460301
S1131520809347039093480320E030E040EF51E478
S113153060918D0370918E0380918F03909190033D
S11315400E94911F8823ACF020E030E040EA51E48F
S1131550C701B6010E94421E88235CF40E94021651
S113156010922B0361E080E00E948102C1E001C07F
S1131570C0E08C2FCF91FF90EF90DF90CF90089533
S11315804F925F926F927F928F929F92AF92BF928F
S1131590CF92DF92EF92FF920F931F93CF93DF933B
S11315A0EC0189E0E2D282E00E9456166093850342
S11315B070938603809387039093880382E00E944C
S11315C056166B017C016093890370938A038093A0
S11315D08B0390938C038090850390908603A09056
S11315E08703B0908803A50194010E94421E8823BA
S11315F04CF4C0927703D0927803E0927903F0928E
S11316007A0308C08092770390927803A0927903BA
S1131610B0927A031092400310923F030E94331455
S11316202E010D2E000C66087708EDC082E00E94A2
S11316305616609385037093860380938703909373
S1131640880382E00E945616E62EF72E082F192FE3
S1131650862F9F2DA02FB12F8093890390938A0307
S1131660A0938B03B0938C03A0908503B090860362
S1131670C0908703D09088032A2D3B2D4C2D5D2DDF
S11316806E2D7F2D802F912F0E94421E882324F0DF
S1131690EA2CFB2C0C2D1D2D8E2D9F2DA02FB12F50
S11316A08093770390937803A0937903B0937A039C
S11316B00E94F61790E09093400380933F03833099
S11316C0910581F460E070E080E89FEB0E94E315EF
S11316D00E94F61790E09093400380933F03833079
S11316E0910581F3892B09F47FC084E00E9456168A
S11316F060936E0370936F038093700390937103F0
S113170083E00E9456166B017C0160934903709339
S11317104A0380934B0390934C0320E030E040E76E
S113172051E40E94421E88237CF580906E039090C1
S11317306F03A0907003B090710320E030E040E7A5
S113174051E4C501B4010E94421E8823ECF4A701B0
S11317509601C501B4010E94DD1D2AE037ED43EA7C
S11317605DE30E94951F6093350370933603809365
S113177037039093380320E030E040E05FE30E94B9
S1131780911F181654F011C01092350310923603AD
S1131790109237031092380308C010923503109248
S11317A036031092370310923803C0903503D0905B
S11317B03603E0903703F09038032DEC3CEC4CE416
S11317C05FE3C701B6010E94DE1D4B015C01A70166
S11317D096016DEC7CEC8CE49FE30E94DD1DA50179
S11317E094010E9407160FC0C301B2010E94E11EBA
S11317F00E94E3150E944E17813029F015DECE01B8
S11318004BD081112FC0C0907703D0907803E09023
S11318107903F0907A0320E030E040EA50E4C70115
S1131820B6010E94421E1816ECF420E030E040EAB3
S113183051E4C701B6010E94911F18160CF0F6CEB0
S11318400E94A01520E030E040EF51E40E94911F77
S113185088230CF4EBCE80913F0390914003892BB5
S113186009F0E4CE10926903109268030E940216F4
S113187081E080932B03DF91CF911F910F91FF9013
S1131880EF90DF90CF90BF90AF909F908F907F901C
S11318906F905F904F9008950F931F93CF93209173
S11318A0290330912A032530310508F0C7C08C0183
S11318B082E00E94561620E030E040ED50E40E94A1
S11318C0911F88230CF4CCC082E00E94561620E0BD
S11318D030E040ED50E40E94911F88230CF4C0C016
S11318E00E94CF1780937F030E94911780935B031C
S11318F00E94B0178093760390917F03913031F06A
S113190090915B03913001F5813001F588E02DD190
S11319102AE939E949E95FEB60E070E080E890E4A6
S11319200E941A1660912C0370912D037195619594
S11319307109072E000C880B990B0E94E11EE0DA56
S1131940C8011EDEC1E003C0C0E001C0C0E00E94C7
S1131950911780935B038130A9F584E006D120E0E0
S113196030E040E85FEB60E070E080EA90E40E94E1
S11319701A1660E070E08CE092ECC2DA20E030E00D
S113198040E85FE360E070E080E891E40E941A16AA
S113199060E070E0CB01B4DA20E030E040E85FEBD7
S11319A060E070E080E491E40E941A1686E0DDD0E5
S11319B0C801E6DD0E94B01780937603813009F0F8
S11319C044C007C00E94B01780937603813009F0A9
S11319D03AC087E0CAD06DEC7CEC8CE89FEB0E94A7
S11319E0E31520E030E040E85FEB60E070E080EA7F
S11319F090E40E941A1660E070E08CE092E480DAD1
S1131A0020E030E040E85FE360E070E080E891E4EB
S1131A100E941A166DEC7CEC8CEC9DEB71DA20E0E4
S1131A2030E040E85FEB60E070E080E491E40E9425
S1131A301A1686E09AD0C801A3DD07C010922A03C3
S1131A40109229030DC0C13061F480912903909153
S1131A502A03019690932A0380932903C1E001C0CD
S1131A60C0E08C2FCF911F910F910895FC012E9807
S1131A70269AF8949B0121503109672B09F424C05C
S1131A800190008007D0029005D001900190019050
S1131A9001D016C007D006D005D004D003D002D0A0
S1131AA001D000C02E9A001C0000000008F02E98FF
S1131AB00000000000000000000008F42E980895C3
S1131AC02150310908F0DCCF78948FE391E001973D
S1131AD0F1F700C00000089563E070E085E993E049
S1131AE0C5CF089590E08A30910558F5FC01882708
S1131AF0EE58FF4F8F4F0C9455208FEF70E060E04D
S1131B00089580E07FEF60E0089580E070E060E099
S1131B10089580E07FEF6FEF089580E07FE76FEF37
S1131B2008958FEF7FEF6FEF08958FEF70E06FEF01
S1131B30089584E670E064E6089586E976E966E946
S1131B40089580E070E060E0089580E070E06FEF59
S1131B500895C8DF60939503709396038093970369
S1131B60BBCF089586E0F5CF0895BCDF609398035A
S1131B707093990380939A03AFCF089586E0F5CFCD
S1131B800895B0DF60939B0370939C0380939D033F
S1131B90A3CF089586E0F5CF08951F920F920FB654
S1131BA00F9211240BB60F924F925F926F927F9215
S1131BB08F929F92AF92BF92CF92DF92EF92FF9259
S1131BC00F931F932F933F934F935F936F937F9341
S1131BD08F939F93AF93BF93CF93DF93EF93FF9331
S1131BE010925104809151048430E8F4E09151043E
S1131BF0F0E0EE0FFF1FEE0FFF1FEC5EFB4F808146
S1131C009181A281B3810196A11DB11D808391832D
S1131C10A283B383809151048F5F80935104809198
S1131C205104843018F38091AA038F5F8093AA0330
S1131C308091AA03843010F01092AA03E091AA03C1
S1131C40F0E0EE0FFF1FE158FB4F80819181019678
S1131C5091838083C090DB03D090DC03E090DD03AC
S1131C60F090DE036091390470913A0480913B0452
S1131C7090913C040E94DF1EA70196010E94DE1D84
S1131C800E94B31E6093390470933A0480933B041A
S1131C9090933C04E091AA03F0E0EA5AFB4F808160
S1131CA08111FEC0C091AA03D0E080904D049090B1
S1131CB04E04A0904F04B0905004E091AA03F0E0C9
S1131CC0EE0FFF1FEE0FFF1FEC50FC4FC080D180C2
S1131CD0E280F380E091AA03F0E0EE0FFF1FEE0F25
S1131CE0FF1FE25AFB4F4080518062807380E09175
S1131CF0AA03F0E0EE0FFF1FEE0FFF1FEC5FFB4F98
S1131D002081318142815381A0917604B09177047E
S1131D10E091AA03F0E0EE5AFB4F1081E091AA0390
S1131D20F0E0E152FC4F00810E946C20DC01CB0109
S1131D3084199509A609B709BC01CD016C0D7D1D57
S1131D408E1D9F1D0E94DF1E9B01AC01C501B401C5
S1131D500E94461E6B017C01612F110F770B880BCB
S1131D60990B0E94E11E9B01AC01C701B6010E94C0
S1131D70951F6B017C01602F000F770B880B990B6B
S1131D800E94E11E9B01AC01C701B6010E94951F90
S1131D90CC0FDD1FCC0FDD1FCD5FDC4F6883798353
S1131DA08A839B83E091AA03F0E0EE0FFF1FEE0FFE
S1131DB0FF1FED5FFC4F60817181828193810E94DE
S1131DC0651820E030E040E250E40E94421E88237F
S1131DD00CF041C0E091AA03F0E0EE0FFF1FEE0FFC
S1131DE0FF1FED5FFC4F6081718182819381E091DF
S1131DF0AA03F0E0EE0FFF1FEE0FFF1FEF50FD4FA1
S1131E0020813181428153810E94DD1D0E94651829
S1131E1020E030E040E05FE30E94421E8823DCF4CF
S1131E20E091AA03F0E0A091AA03B0E0AA0FBB1FBF
S1131E30AA0FBB1FAD5FBC4F8D919D910D90BC91BE
S1131E40A02DEE0FFF1FEE0FFF1FE754FD4F808301
S1131E509183A283B383E091AA03F0E0A091AA0343
S1131E60B0E0AA0FBB1FAA0FBB1FAD5FBC4F8D9183
S1131E709D910D90BC91A02DEE0FFF1FEE0FFF1F43
S1131E80EF50FD4F80839183A283B383E091AA0333
S1131E90F0E0EA5AFB4F81E08083809324045BC026
S1131EA0E091AA03F0E0EE0FFF1FEE0FFF1FE754CF
S1131EB0FD4F60817181828193810E9465182AE0BF
S1131EC037ED43E25CE30E94421E181674F0E09181
S1131ED0AA03F0E0EE0FFF1FEE0FFF1FE754FD4FC4
S1131EE0108211821282138228C0E091AA03F0E0CA
S1131EF0EE0FFF1FEE0FFF1FE754FD4F608171814E
S1131F0082819381C091AA03D0E0CC0FDD1FCC0F56
S1131F10DD1FC754DD4FC880D980EA80FB802DECDB
S1131F203CEC4CEC5DEB0E94951FA70196010E94CE
S1131F30DE1D688379838A839B83E091AA03F0E0A2
S1131F40EE0FFF1FE158FB4F80819181069718F037
S1131F5081E080932404E091AA03F0E0EE0FFF1FD8
S1131F60EE0FFF1FE754FD4F6081718182819381E1
S1131F7020915A0430915B0440915C0450915D04BB
S1131F80C091AA03D0E0CC0FDD1FCC0FDD1FCC55D0
S1131F90DD4FC880D980EA80FB800E94951FA7018D
S1131FA096010E94DE1D688379838A839B83E09176
S1131FB0AA03F0E0EE0FFF1FEE0FFF1FE753FD4FE4
S1131FC06081718182819381D0912404C1E020E0F9
S1131FD030E0A9010E94421E8111C0E0C11107C076
S1131FE081E0D13009F080E0882309F429C31092FC
S1131FF02404E091AA03F0E0EE0FFF1FEE0FFF1F91
S1132000E753FD4F608171818281938120E030E04C
S1132010A9010E94421E811114C0E091AA03F0E0BC
S1132020EE0FFF1FEE0FFF1FE754FD4F608171811C
S11320308281938120E030E0A9010E94421E811137
S113204015C0E091AA03F0E0EE0FFF1FEE0FFF1F93
S1132050E753FD4F608171818281938120E030E0FC
S1132060A9010E94421E882309F4D4C1C091AA0385
S1132070D0E0E091AA03F0E0EE0FFF1FEE0FFF1F88
S1132080E753FD4F6081718182819381E091AA03BE
S1132090F0E0EE0FFF1FEE0FFF1FE754FD4F20810E
S11320A03181428153810E94DD1DCC0FDD1FCC0F95
S11320B0DD1FC155DC4F688379838A839B83C0917C
S11320C0AA03D0E0E091AA03F0E0EE0FFF1FEE0FA9
S11320D0FF1FE155FC4F608171818281938120E073
S11320E030E046E153E40E94951FCC0FDD1FCC0F76
S11320F0DD1FC35CDB4F688379838A839B83E09114
S1132100AA03F0E0EE0FFF1FE158FB4F60817181DD
S1132110C0907204D0907304E0907404F09075043D
S1132120E091AA03F0E0EE0FFF1FEE0FFF1FE15551
S1132130FC4F4080518062807380C091AA03D0E03C
S1132140CC0FDD1FCC0FDD1FCD51DC4F8880998073
S1132150AA80BB8080E090E00E94DF1EA701960168
S11321600E94951FA30192010E94951FA50194014D
S11321700E94DE1D688379838A839B83C091AA03AE
S1132180D0E0E091AA03F0E0EE0FFF1FEE0FFF1F77
S1132190E155FC4F6081718182819381E091AA03B2
S11321A0F0E0EE0FFF1FEE0FFF1FEB5DFB4F2081F2
S11321B0318142815381C090D703D090D803E090FD
S11321C0D903F090DA03E091AA03F0E0EE0FFF1FC9
S11321D0E158FB4F008111810E94DD1DA70196018A
S11321E00E94951F6B017C01B80180E090E00E9481
S11321F0DF1E9B01AC01C701B6010E94461ECC0F35
S1132200DD1FCC0FDD1FCD53DC4F688379838A83B8
S11322109B83E091AA03F0E0A091AA03B0E0AA0F87
S1132220BB1FAA0FBB1FA155BC4F8D919D910D9053
S1132230BC91A02DEE0FFF1FEE0FFF1FEB5DFB4FB8
S113224080839183A283B383E091AA03F0E0EE0F2D
S1132250FF1FEE0FFF1FED51FC4F608171818281E2
S113226093812AE939E949E15EE30E94911F181636
S113227094F4E091AA03F0E0EE0FFF1FEE0FFF1FAE
S1132280ED51FC4F8AE999E9A9E1BEE3808391838A
S1132290A283B38326C0E091AA03F0E0EE0FFF1FF0
S11322A0EE0FFF1FED51FC4F60817181828193819C
S11322B02AE939E949E15EEB0E94421E88238CF445
S11322C0E091AA03F0E0EE0FFF1FEE0FFF1FED51A8
S11322D0FC4F8AE999E9A9E1BEEB80839183A2834B
S11322E0B383C091AA03D0E0E091AA03F0E0EE0F1B
S11322F0FF1FEE0FFF1FE35CFB4F60817181828142
S11323009381E091AA03F0E0EE0FFF1FEE0FFF1F91
S1132310ED51FC4F2081318142815381E091AA0328
S1132320F0E0EE0FFF1FEE0FFF1FED53FC4FC080D8
S1132330D180E280F380E091AA03F0E0EE0FFF1F6A
S1132340EE0FFF1FEF51FD4F80809180A280B3807C
S11323500E94DE1DA70196010E94DE1DA5019401C5
S11323600E94DE1DCC0FDD1FCC0FDD1FCC5EDC4FC9
S1132370688379838A839B83E091AA03F0E0EE0F5C
S1132380FF1FEE0FFF1FEC5EFC4F608171818281A5
S1132390938120E030EC4FE754E40E94911F18161B
S11323A094F4E091AA03F0E0EE0FFF1FEE0FFF1F7D
S11323B0EC5EFC4F80E090ECAFE7B4E48083918363
S11323C0A283B38334C0E091AA03F0E0EE0FFF1FB1
S11323D0EE0FFF1FEC5EFC4F60817181828193815F
S11323E020E030EC4FE754EC0E94421E8823FCF4BA
S11323F0E091AA03F0E0EE0FFF1FEE0FFF1FEC5E6B
S1132400FC4F80E090ECAFE7B4EC80839183A2832F
S1132410B3830DC0E091AA03F0E0EE0FFF1FEE0FAF
S1132420FF1FEC5EFC4F1082118212821382E09136
S1132430AA03F0E0EE0FFF1FE158FB4F1182108258
S1132440E091AA03F0E0A091AA03B0E0AA0FBB1F99
S1132450AA0FBB1FAC5EBC4F8D919D910D90BC919A
S1132460A02DEE0FFF1FEE0FFF1FEF51FD4F8083D6
S11324709183A283B383E091AA03F0E0EE0FFF1FE0
S1132480EE0FFF1FEC5EFC4F6081718182819381AE
S113249020E030E0A9010E94421E811103C08FEFA9
S11324A082B96FC0E091AA03F0E0EE0FFF1FEE0FB8
S11324B0FF1FEC5EFC4F608171818281938120E07B
S11324C030E0A9010E94421E8823E4F5E091AA03AA
S11324D0F0E0A091AA03B0E0AA0FBB1FAA0FBB1F94
S11324E0AC5EBC4F8D919D910D90BC91A02DB058C8
S11324F0EE0FFF1FEE0FFF1FEC5EFC4F80839183F6
S1132500A283B38332B1E091AA03F0E0E858FB4F11
S11325102081E091AA03F0E0EB5CFB4F608181E055
S113252090E0AC0102C0440F551F2A95E2F7242F16
S11325302095232302C0880F991F6A95E2F7822B06
S113254082B91FC032B1E091AA03F0E0EB5CFB4F0B
S11325502081E091AA03F0E0E858FB4F608181E01C
S113256090E0AC0102C0440F551F2A95E2F7242FD6
S11325702095232302C0880F991F6A95E2F7822BC6
S113258082B98091AA03811114C0E091AA03F0E0FA
S1132590EE0FFF1FEE0FFF1FEC5EFC4F6081718199
S11325A0828193810E94AE1E7093A9006093A8005B
S11325B047C08091AA038230A1F4E091AA03F0E01D
S11325C0EE0FFF1FEE0FFF1FEC5EFC4F6081718169
S11325D0828193810E94AE1E7093AD006093AC0023
S11325E02FC08091AA038330A1F4E091AA03F0E004
S11325F0EE0FFF1FEE0FFF1FEC5EFC4F6081718139
S1132600828193810E94AE1E7093AB006093AA00F6
S113261017C08091AA03813099F4E091AA03F0E0F5
S1132620EE0FFF1FEE0FFF1FEC5EFC4F6081718108
S1132630828193810E94AE1E7093990060939800EA
S1132640FF91EF91DF91CF91BF91AF919F918F91C6
S11326507F916F915F914F913F912F911F910F91B6
S1132660FF90EF90DF90CF90BF90AF909F908F90AE
S11326707F906F905F904F900F900BBE0F900FBEA6
S11326800F901F901895CF93DF93C82FD0E0FE01D1
S1132690E555FC4F80818F5F8083608170E080E02E
S11326A090E00E94E11E20E030E040E450E40E940B
S11326B0911F88230CF450C083B1FE01ED52FC4FEE
S11326C0208190E002C0959587952A95E2F780FDD8
S11326D006C081E0FE01EE5AFB4F808305C08FEFF8
S11326E0FE01EE5AFB4F8083CE01880F991F880F9D
S11326F0991FFC01EC50FC4F408151816281738130
S1132700DC01A25ABB4F4D935D936D937C93139759
S1132710409184005091850060E070E040835183D3
S113272062837383FE01E555FC4F1082FC01EC5E6D
S1132730FB4F4081518162817381DC01AC5FBB4FEF
S11327404D935D936D937C93139710821182128243
S11327501382CA5ADB4F1882DF91CF9108958FE616
S113276092E1A3E0BCE38093BF039093C003A093E2
S1132770C103B093C2038FEF9CE7909377048093D7
S113278076046091BF037091C0038091C10390915E
S1132790C2039B01AC010E94DE1D6093720470931E
S11327A0730480937404909375042091BF03309153
S11327B0C0034091C1035091C20360E070E080EE19
S11327C090E40E94461E6093D7037093D8038093CD
S11327D0D9039093DA0389ED94E6ADE3B7E48093EB
S11327E04D0490934E04A0934F04B0935004609111
S11327F0BF037091C0038091C1039091C2032EE284
S113280037EE4AEA51E40E94951F60935A0470938C
S11328105B0480935C0490935D0480E090E0A0E00E
S1132820B0E48093DB039093DC03A093DD03B093C7
S1132830DE030895109281008FEF82B91092A900EF
S11328401092A8001092AD001092AC001092AB0050
S11328501092AA001092990010929800089589E0AD
S11328608093810008951092F3038091F3038430E0
S1132870B0F4E091F303F0E0EE0FFF1FEE0FFF1F43
S1132880EC55FD4F10821182128213828091F30362
S11328908F5F8093F3038091F303843050F30895A2
S11328A01092AA0310927C0480917C04843008F076
S11328B0C6C081E0E0917C04F0E0EE0FFF1FEE0F54
S11328C0FF1FE754FD4F1082118212821382E091A0
S11328D07C04F0E0EE0FFF1FEE0FFF1FEB5DFB4FDC
S11328E01082118212821382E0917C04F0E0EE0FD8
S11328F0FF1FEE0FFF1FED51FC4F10821182128259
S11329001382E0917C04F0E0EE5AFB4F1082E091D8
S11329107C04F0E0EE0FFF1FEE0FFF1FE25AFB4FA7
S11329201082118212821382E0917C04F0E0EE0F97
S1132930FF1FEE0FFF1FEC50FC4F1082118212821A
S11329401382E0917C04F0E0EE0FFF1FEE0FFF1FF7
S1132950EC5FFB4F1082118212821382E0917C049F
S1132960F0E0EA5AFB4F8083E0917C04F0E0EE0F44
S1132970FF1FEE0FFF1FEF51FD4F108211821282D5
S11329801382E0917C04F0E0E555FC4F8083E091F4
S11329907C04F0E0EE0FFF1FEE0FFF1FEC5EFB4F19
S11329A01082118212821382E0917C04F0E0EE0F17
S11329B0FF1FEE0FFF1FE155FC4F108211821282A0
S11329C01382E0917C04F0E0EE0FFF1FEE0FFF1F77
S11329D0EB5DFB4F1082118212821382E0917C0422
S11329E0F0E0EE0FFF1FEE0FFF1FE35CFB4F1082C2
S11329F0118212821382E0917C04F0E0EE0FFF1F3B
S1132A00EE0FFF1FED53FC4F1082118212821382CE
S1132A10E0917C04F0E0EE0FFF1FEE0FFF1FEC5E71
S1132A20FC4F108211821282138290917C049F5F6A
S1132A3090937C0490917C04943008F43BCF8FCE27
S1132A4008952EDF80917604909177049093890005
S1132A508093880092E090936F008AB1837F8AB953
S1132A608BB18C608BB98DB18F7C8DB98EB1806345
S1132A708EB9E9E6F0E08081806380838081806C98
S1132A808083EAE6F0E080818360808380818C60CB
S1132A9080838DB38C638DBB6B9AE1E0F1E0808120
S1132AA0886380838FEF81B982B984B1807F84B9D0
S1132AB0E0E9F0E0808180688083808183608083A6
S1132AC0A1E9B0E08C9188608C93E0EAF0E0808129
S1132AD08068808380818062808380818860808335
S1132AE0808183608083E1EAF0E080818860808374
S1132AF08081836080838C9183608C93E3EDF3E029
S1132B0023E0208381E0818392831382E5E3F4E070
S1132B101082218326E0228325E02383E8E7F4E082
S1132B209083818394E0928397E09383EFEDF3E0C5
S1132B3080838183828383837DDE95DE7894089508
S1132B40CF92DF92EF92FF92C090A402D090A502A0
S1132B50E090A602F090A70281E080937D0480912A
S1132B607D04843048F5E0917D04F0E0EE0FFF1F12
S1132B70EE0FFF1FEC55FD4F6081718182819381BF
S1132B80A70196010E94421E88236CF4E0917D0403
S1132B90F0E0EE0FFF1FEE0FFF1FEC55FD4FC0805E
S1132BA0D180E280F38080917D048F5F80937D04E7
S1132BB080917D048430B8F2C701B601FF90EF9094
S1132BC0DF90CF900895AB01BC0110927E048091F8
S1132BD07E048430B0F4E0917E04F0E0EE0FFF1F39
S1132BE0EE0FFF1FE753FD4F4083518362837383CE
S1132BF080917E048F5F80937E0480917E04843074
S1132C0050F3089560E070E0CB01DDCF0895E9EC66
S1132C10F2E02483358346835783248735874687A8
S1132C2057876083718382839383608771878287E8
S1132C30938708958F929F92AF92BF92CF92DF9223
S1132C40EF92FF926B017C0149015A0179DF609395
S1132C506E0470936F048093700490937104C501A3
S1132C60B401B1DF6DDF20916E0430916F044091A7
S1132C70700450917104A1D728D2A70196010E9433
S1132C80421E88237CF3BEDFFF90EF90DF90CF904D
S1132C90BF90AF909F908F90089560913904709188
S1132CA03A0480913B0490913C040895CF92DF92C2
S1132CB0EF92FF9290E051D7BC01990F880B990BCA
S1132CC00E94E11E20E030E040E251E4DFD76B01D6
S1132CD07C0120E030E0A901D5D7882349F0C092D7
S1132CE08704D0928804E0928904F0928A040CC08C
S1132CF080E090E0ACECB1E4809387049093880486
S1132D00A0938904B0938A04609187047091880425
S1132D108091890490918A04FF90EF90DF90CF9086
S1132D200895279A2F980895CF93DF932F9A8FE3CE
S1132D309CE90197F1F700C00000109293041092EF
S1132D4094041092950410929604C5E0D0E080E0BB
S1132D500E94AE00BC01990F880B990B0E94E11EE2
S1132D609B01AC016091930470919404809195044B
S1132D709091960423D76093930470939404809362
S1132D80950490939604219711F72F9820E030E052
S1132D9040EA50E460919304709194048091950406
S1132DA09091960473D7DF91CF910895AF92BF921B
S1132DB0CF92DF92EF92FF920F931F93CF93DF9303
S1132DC0C2E0D0E0E12CF12C00E010E0BE0186ED81
S1132DD090E0F5D2BC01990F880B990BF2D7A62E7F
S1132DE0B72EC82ED92E2E2D3F2D402F512F0E94A5
S1132DF0911F181624F4EA2CFB2C0C2D1D2D219662
S1132E00C930D10519F76E2D7F2D802F912FDF91B9
S1132E10CF911F910F91FF90EF90DF90CF90BF90D3
S1132E20AF900895AF92BF92CF92DF92EF92FF924C
S1132E300F931F93CF93DF93C2E0D0E0E12CF12CEA
S1132E4000E010E0BE0180ED90E0B9D2BC01990F22
S1132E50880B990BB6D7A62EB72EC82ED92E2E2D99
S1132E603F2D402F512F0E94911F181624F4EA2C55
S1132E70FB2C0C2D1D2D2196C930D10519F76E2D73
S1132E807F2D802F912FDF91CF911F910F91FF9074
S1132E90EF90DF90CF90BF90AF900895CF92DF92E4
S1132EA0EF92FF92CF9340DF9B01AC0160E070ECA6
S1132EB08FE794E482D66B017C018BE192E03FD1F1
S1132EC0C701B601E5D184E292E039D120E030E0D7
S1132ED042E554E4C701B6010E94911F1816BCF0E4
S1132EE020E030E849E054E4C701B6010E94911F94
S1132EF018167CF0C1E020E030E048E453E4C70158
S1132F00B6010E94911F18162CF0C0E003C0C2E065
S1132F1001C0C0E08C2FCF91FF90EF90DF90CF9055
S1132F2008951092910410928C04809106018823D4
S1132F3084F003C09081992324F081E0809391046C
S1132F4005C080938C048F5F8730A1F78091910432
S1132F50089581E080938C0482E0E6E0F1E0EACF1A
S1132F601092910410928C048091060185FD10C08A
S1132F7003C0908195FD04C081E08093910405C055
S1132F8080938C048F5F8730A1F78091910408951A
S1132F9081E080938C0482E0E6E0F1E0EACF1092D5
S1132FA0910410928C048091060186FD10C003C028
S1132FB0908196FD04C081E08093910405C08093C4
S1132FC08C048F5F8730A1F780919104089581E08C
S1132FD080938C0482E0E6E0F1E0EACF25982D9A14
S1132FE0109207018FEF809308010895CF92DF922A
S1132FF0EF92FF921092920410928D0410928E041C
S113300010928F041092900482E090E00E94B60126
S11330106B017C0160938D0470938E0480938F0404
S11330209093900420E030E04CE052E47AD71816F4
S11330304CF020E030E04CE052ECC701B60122D65F
S1133040882324F483E08093920436C020E030E0A7
S113305040E251E4C701B60164D718166CF020E0D1
S113306030E040EA50E4C701B6015BD7181644F4D7
S113307080918B04813021F481E0809392041CC000
S113308020E030E040E251ECC701B601FBD58823D3
S11330906CF020E030E040EA50ECC701B601F2D514
S11330A0882344F480918B04823021F482E080935D
S11330B0920402C0109292048091920480938B0433
S11330C0FF90EF90DF90CF900895CF92DF92EF9230
S11330D0FF926B017C0120E030E0A901D3D5882365
S11330E024F4F7FAF094F7F8F094C701B601FF90CE
S11330F0EF90DF90CF9008958091690290916A02D9
S1133100A0916B02B0916C02892F9A2FAB2FBB2731
S1133110A7FDBA958093C500809169028093C4008D
S113312088E18093C10086E08093C2000895E0ECBA
S1133130F0E0908195FFFDCF8093C6000895EF9253
S1133140FF920F931F93CF93DF938C017C01C0E018
S1133150D0E005C0F70181917F01E9DF2196F801F4
S113316001900020E9F73197E01BF10BCE17DF0740
S113317088F3DF91CF911F910F91FF90EF90089505
S11331802F923F924F925F927F928F929F92AF9233
S1133190BF92CF92DF92EF92FF920F931F93CF9340
S11331A0DF93CDB7DEB7A0970FB6F894DEBF0FBE9E
S11331B0CDBF6B017C0199230CF04CC086E592E0F5
S11331C0BEDFF094E094D094C094C11CD11CE11CE7
S11331D0F11CC114D104E104F10419F480E3A7DF64
S11331E03FC08E010F5F1F4F5E0181E2A80EB11C2C
S11331F0F8011192EA15FB05E1F70F2EFFE17F2E8E
S1133200F02D0F2EFAE02F2E312C412C512CF02DC5
S113321088248394912C8C0E9D1E870C911CC701CD
S1133220B601A201910125D7605DF4016083C22E2D
S1133230D32EE42EF52E7A94C114D104E104F104C2
S113324039F7F80181918F01811171DF0A151B058E
S1133250C1F706C0672B682B692B09F0C2CFBECF1C
S1133260A0960FB6F894DEBF0FBECDBFDF91CF910D
S11332701F910F91FF90EF90DF90CF90BF90AF9090
S11332809F908F907F905F904F903F902F900895E4
S11332908F929F92AF92BF92CF92DF92EF92FF9262
S11332A04B015C0120E030E0A901ECD488233CF41C
S11332B086E592E044DFB7FAB094B7F8B094C5015C
S11332C0B4014CD56B017C0120E030E04AE754E4C2
S11332D0C501B4012AD64B015C010D2C000CEE088B
S11332E0FF08C701B6014CDF88E592E028DFC7017B
S11332F0B60167D520E030E04AE754E416D62ED56F
S1133300072E000C880B990B5CD59B01AC01C50101
S1133310B40153D423D5072E000C880B990B30DF4E
S1133320FF90EF90DF90CF90BF90AF909F908F90E1
S11333300895823091053CF4909398048093970407
S113334080E090E008958091970490919804089506
S1133350ECEBF0E08081846A808380818823ECF741
S11333608091B900883041F02091B90081E090E06B
S1133370203121F480E0089580E090E00895809366
S1133380BB0084E88093BC00ECEBF0E080818823F0
S1133390ECF78091B900883161F08091B9008832EE
S11333A059F02091B90081E090E0203439F480E0B4
S11333B0089580E090E0089580E090E00895CF9231
S11333C0DF92EF92FF920F931F93CF93DF938C01C1
S11333D07B01BEDFEC01892B31F084E98093BC00D2
S11333E0C0E0D0E02BC0C801CADF6C01892B21F0FA
S11333F084E98093BC0022C0C701C1DFEC01892BA2
S113340029F084E98093BC00E60118C0A1DFC8015B
S11334108160B5DF892B21F084E98093BC000EC064
S113342084E88093BC00ECEBF0E080818823ECF727
S113343084E98093BC00C091BB00D0E0CE01DF9151
S1133440CF911F910F91FF90EF90DF90CF9008954F
S1133450CF92DF92EF92FF920F931F93CF93DF935C
S11334608C017B0175DFEC01892B31F084E98093B9
S1133470BC00C0E0D0E036C0C80181DF6C01892BFC
S113348021F084E98093BC002DC0C70178DFEC01F2
S1133490892B29F084E98093BC00E60123C058DF1E
S11334A0C80181606CDF892B21F084E98093BC0022
S11334B019C084EC8093BC00ECEBF0E0808188239D
S11334C0ECF7C091BB0084E88093BC00ECEBF0E027
S11334D080818823ECF78091BB0094E99093BC0031
S11334E0D0E0D82BCE01DF91CF911F910F91FF90A7
S11334F0EF90DF90CF900895CF92DF92EF92FF92FA
S11335000F931F93CF93DF938C017B016A0120DF1C
S1133510EC01892B31F084E98093BC00C0E0D0E059
S113352038C0C8012CDF8C01892B51F084E98093C9
S1133530BC008FE19EE40197F1F700C0000029C0B0
S1133540C7011DDFEC01892B59F084E98093BC008D
S11335508FE19EE40197F1F700C00000E80119C073
S1133560C6010DDF892B51F084E98093BC008FE103
S11335709EE40197F1F700C000000BC084E980933A
S1133580BC008FE19EE40197F1F700C00000C1E0A8
S1133590D0E0CE01DF91CF911F910F91FF90EF907A
S11335A0DF90CF9008951F93CF93DF93EC01162FF4
S11335B00E94FD01892B21F00E94D9010E943E0244
S11335C08091060290E00E942402892B21F00E943F
S11335D0D9010E943E028D2F90E00E94240288238C
S11335E021F00E94D9010E943E02CE0199270E9437
S11335F02402892B21F00E94D9010E943E02812FCE
S113360090E00E942402892B21F00E94D9010E949B
S11336103E020E943E02DF91CF911F910895CF9305
S1133620C82F682F6F7782E192E0BDDFCC0FC09383
S11336300602CF9108950F931F93CF93DF938C01CC
S1133640EB010E94FD01892B21F00E94D9010E9407
S11336503E028091060290E00E942402892B21F010
S11336600E94D9010E943E02812F90E00E94240210
S1133670882321F00E94D9010E943E02C8019927A3
S11336800E942402892B21F00E94D9010E943E024B
S11336908D2F90E00E942402892B21F00E94D901F1
S11336A00E943E02CE0199270E942402892B21F018
S11336B00E94D9010E943E020E943E02DF91CF91F6
S11336C01F910F910895CF93DF93EC010E94FD01A8
S11336D0892B21F00E94D9010E943E0280910602AA
S11336E090E00E942402892B21F00E94D9010E94BB
S11336F03E028D2F90E00E942402882321F00E9434
S1133700D9010E943E02CE0199270E942402892BEE
S113371021F00E94D9010E943E020E94FD01809185
S11337200602816090E00E942402892B21F00E940D
S1133730D9010E943E020E944A02C82F0E943E0202
S11337408C2FDF91CF910895FF920F931F93CF9306
S1133750DF93EC010E94FD01892B21F00E94D90125
S11337600E943E028091060290E00E942402892B6E
S113377021F00E94D9010E943E028D2F90E00E9408
S11337802402882321F00E94D9010E943E02CE0126
S113379099270E942402892B21F00E94D9010E94BA
S11337A03E020E94FD0180910602816090E00E9429
S11337B02402892B21F00E94D9010E943E020E941A
S11337C05E02F82EC92F80E0D82F209739F00E948E
S11337D03E020E94D901C0E0D0E013C00E944A0218
S11337E08C010E943E02812F9927892B29F00E9487
S11337F03E020E94D90105C0DF2D80E0C82FC02BF6
S1133800D12BCE01DF91CF911F910F91FF9008959D
S113381084E290E058DF80936F0286E190E053DF0A
S1133820813009F07FC08093700261E087E092E00C
S1133830BADE61E088E092E0B6DE60E086E990E01E
S1133840B2DE6DEF87E990E0AEDE60E083EE90E0FB
S1133850AADE64E084EE90E0A6DE62E085EE90E00D
S1133860A2DE61E086EE90E09EDE63E087EE90E00B
S11338709ADE62E085EF90E096DE65E089ED90E007
S113388092DE6EEC8BED90E08EDE63E08CED90E0EA
S11338908ADE68EF8DED90E086DE60E08FE990E0EF
S11338A082DE6CE383EA90E07EDE60E087EB90E00A
S11338B07ADE6CE38BEB90E076DE69E082EB90E0FD
S11338C072DE69E08AEC90E06EDE61E088E991E006
S11338D06ADE67E180EB91E066DE60E08DEA91E00C
S11338E062DE65E08FEF90E05EDE65E080E091E00F
S11338F05ADE65E089E991E056DE6BE186EA91E003
S113390052DE6EE38CEA91E04EDE6FE187EA91E0ED
S11339104ADE60E080E390E046DE60E086E190E02D
S113392042CE089586E990E00FDF8435910521F4B5
S113393083E0809370020AC08F37910521F482E0FE
S11339408093700203C081E08093700280916F02C3
S113395090917002899F802D112480936F020895A5
S11339609FEF980F933060F580937002E82FF0E09A
S1133970EE0FFF1FE45AFD4F6081718186E990E0EC
S11339805ADE80916F026091700232D3682F84E214
S113399090E009DE6091700284E12AD3682F81E20D
S11339A090E001DE8DE290E08EDE61E090917002A5
S11339B0913009F060E08E7F682B8DE290E0F3CDCA
S11339C0089560E38AE091E0EEDD66E48FE390E041
S11339D0EADD6FEF81E390E0E6DD63E670E080E42A
S11339E090E029DE61E08EE290E0DDDD69E08BE1CC
S11339F090E0D9DD61E38EE390E0D5DD64E284E11B
S1133A0090E0D1DD61E38CE190E0CDDD60E083EA1C
S1133A1092E0C9DD81E0A4CF08951F93CF93DF9393
S1133A208FEF87B918B82FEF84E39CE021508040D2
S1133A309040E1F700C0000012E510930602419A9D
S1133A402FEF80E792E0215080409040E1F700C0E2
S1133A500000DEDEB6DF82E2E2DDC4EFD1E0D09327
S1133A606E02C0936D0210930602429A2FEF80E714
S1133A7092E0215080409040E1F700C00000C8DE91
S1133A80A0DF84E2CCDDD0936E02C0936D0210936C
S1133A900602439A2FEF80E792E021508040904045
S1133AA0E1F700C00000B4DE8CDF86E2B8DDD0931D
S1133AB06E02C0936D0210930602449A2FEF80E7C2
S1133AC092E0215080409040E1F700C00000A0DE69
S1133AD078DF88E2A4DDD0936E02C0936D02109368
S1133AE00602459A2FEF80E792E0215080409040F3
S1133AF0E1F700C000008CDE64DF80E390DDD0934A
S1133B006E02C0936D02DF91CF911F910895CF9300
S1133B108FE490E0D8DD82FFFBCF82E690E0D3DD36
S1133B20C82F61E085E190E03EDD8C2FCF910895B0
S1133B3061E088E190E037DDEACF0895CF93DF9329
S1133B40C0917002D0E0F4DF282F2C9FC0012D9F7C
S1133B50900D1124DF91CF91089583309105B1F038
S1133B6034F48130910551F0029761F023C085301F
S1133B709105A1F07CF00697A9F01CC080E4809325
S1133B80060213C084E4809306020FC088E4809385
S1133B9006020BC08CE48093060207C080E5809384
S1133BA0060203C080E680930602C8DF22E5209364
S1133BB00602089587EE93E008955058BB27AA277C
S1133BC00ED075C166D130F06BD120F031F49F3F37
S1133BD011F41EF45BC10EF4E095E7FB51C1E92F2B
S1133BE077D180F3BA17620773078407950718F033
S1133BF071F49EF58FC10EF4E0950B2EBA2FA02D13
S1133C000B01B90190010C01CA01A0011124FF2785
S1133C10591B99F0593F50F4503E68F11A16F04080
S1133C20A22F232F342F4427585FF3CF469537957F
S1133C302795A795F0405395C9F77EF41F16BA0B44
S1133C40620B730B840BBAF09150A1F0FF0FBB1FF2
S1133C50661F771F881FC2F70EC0BA0F621F731F3B
S1133C60841F48F4879577956795B795F7959E3F98
S1133C7008F0B3CF9395880F08F09927EE0F979526
S1133C8087950895D9D008F481E008950CD00FC128
S1133C9007D140F0FED030F021F45F3F19F0F0C0BE
S1133CA0511139C1F3C014D198F39923C9F35523A1
S1133CB0B1F3951B550BBB27AA276217730784071B
S1133CC038F09F5F5F4F220F331F441FAA1FA9F3D1
S1133CD033D00E2E3AF0E0E830D091505040E695C3
S1133CE0001CCAF729D0FE2F27D0660F771F881F24
S1133CF0BB1F261737074807AB07B0E809F0BB0B13
S1133D00802DBF01FF2793585F4F2AF09E3F510536
S1133D1068F0B6C000C15F3FECF3983EDCF38695D3
S1133D2077956795B795F7959F5FC9F7880F911DAC
S1133D309695879597F90895E1E0660F771F881F98
S1133D40BB1F621773078407BA0720F0621B730B4B
S1133D50840BBA0BEE1F88F7E095089504D068949D
S1133D60B111D9C00895BCD088F09F5790F0B92FF5
S1133D709927B751A0F0D1F0660F771F881F991FBC
S1133D801AF0BA95C9F712C0B13081F0C3D0B1E0CE
S1133D900895C0C0672F782F8827B85F39F0B93FDE
S1133DA0CCF3869577956795B395D9F73EF49095BE
S1133DB08095709561957F4F8F4F9F4F0895E8943C
S1133DC009C097FB3EF490958095709561957F4F5F
S1133DD08F4F9F4F9923A9F0F92F96E9BB2793950D
S1133DE0F695879577956795B795F111F8CFFAF41D
S1133DF0BB0F11F460FF1BC06F5F7F4F8F4F9F4F4E
S1133E0016C0882311F096E911C0772321F09EE8AB
S1133E10872F762F05C0662371F096E8862F70E011
S1133E2060E02AF09A95660F771F881FDAF7880FEB
S1133E309695879597F90895990F0008550FAA0B41
S1133E40E0E8FEEF16161706E807F907C0F01216A9
S1133E501306E407F50798F0621B730B840B950BAC
S1133E6039F40A2661F0232B242B252B21F4089501
S1133E700A2609F4A140A6958FEF811D811D08959E
S1133E8097F99F6780E870E060E008959FEF80EC09
S1133E90089500240A9416161706180609060895AC
S1133EA000240A9412161306140605060895092E12
S1133EB00394000C11F4882352F0BB0F40F4BF2B81
S1133EC011F460FF04C06F5F7F4F8F4F9F4F0895C1
S1133ED057FD9058440F551F59F05F3F71F04795B7
S1133EE0880F97FB991F61F09F3F79F0879508959C
S1133EF0121613061406551FF2CF4695F1DF08C0BB
S1133F00161617061806991FF1CF869571056105D7
S1133F1008940895E894BB2766277727CB0197F97F
S1133F2008958ADF08F48FEF08950BD0C0CFB1DF76
S1133F3028F0B6DF18F0952309F0A2CFA7CF1124FB
S1133F40EACFC6DFA0F3959FD1F3950F50E0551F3C
S1133F50629FF001729FBB27F00DB11D639FAA27DA
S1133F60F00DB11DAA1F649F6627B00DA11D661F29
S1133F70829F2227B00DA11D621F739FB00DA11D4A
S1133F80621F839FA00D611D221F749F3327A00D04
S1133F90611D231F849F600D211D822F762F6A2FA0
S1133FA011249F5750408AF0E1F088234AF0EE0F25
S1133FB0FF1FBB1F661F771F881F91505040A9F732
S1133FC09E3F510570F05CCFA6CF5F3FECF3983E67
S1133FD0DCF3869577956795B795F795E7959F5F99
S1133FE0C1F7FE2B880F911D9695879597F9089533
S1133FF0991B79E004C0991F961708F0961B881F37
S11340007A95C9F78095089597FB072E16F40094C6
S113401006D077FD08D06AD007FC05D03EF4909511
S113402081959F4F0895709561957F4F0895A1E202
S11340301A2EAA1BBB1BFD010DC0AA1FBB1FEE1F1E
S1134040FF1FA217B307E407F50720F0A21BB30B69
S1134050E40BF50B661F771F881F991F1A9469F7E5
S113406060957095809590959B01AC01BD01CF0141
S11340700895052E97FB16F400940FD057FD05D034
S1134080D6DF07FC02D046F408C050954095309521
S113409021953F4F4F4F5F4F0895909580957095B0
S11340A061957F4F8F4F9F4F0895EE0FFF1F881F1D
S11340B08BBF0790F691E02D1994A29FB001B39F96
S11340C0C001A39F700D811D1124911DB29F700D1D
S11340D0811D1124911D0895F0DFA59F900DB49FBB
S11340E0900DA49F800D911D11240895AA1BBB1B44
S11340F051E107C0AA1FBB1FA617B70710F0A61BE4
S1134100B70B881F991F5A95A9F780959095BC0104
S10B4110CD010895F894FFCFDE
S1134118080301020104526500696E6974200A00EB
S113412866696E6520696E69740A00200A20207623
S1134138616C3A00200050756C73616E7465200AD6
S11341480050616C6120446176616E7469200A00D4
S1134158426166666F204478200A00426166666F91
S1134168205378200A002D002E002C000000FD00AA
S10741787F0054006C
S9030000FC
